{
  "_format": "hh-sol-artifact-1",
  "contractName": "OptionMarket",
  "sourceName": "contracts/PredictionMarket/OptionMarket.sol",
  "abi": [
    {
      "inputs": [
        {
          "internalType": "address",
          "name": "target",
          "type": "address"
        }
      ],
      "name": "approveRedeem",
      "outputs": [],
      "stateMutability": "nonpayable",
      "type": "function"
    },
    {
      "inputs": [
        {
          "internalType": "address",
          "name": "target",
          "type": "address"
        },
        {
          "internalType": "uint256",
          "name": "opt",
          "type": "uint256"
        },
        {
          "internalType": "uint256",
          "name": "dx",
          "type": "uint256"
        }
      ],
      "name": "buyOption",
      "outputs": [
        {
          "internalType": "uint256",
          "name": "acquiredOptions",
          "type": "uint256"
        },
        {
          "internalType": "uint256",
          "name": "dy",
          "type": "uint256"
        }
      ],
      "stateMutability": "nonpayable",
      "type": "function"
    },
    {
      "inputs": [
        {
          "internalType": "address",
          "name": "target",
          "type": "address"
        },
        {
          "internalType": "uint256",
          "name": "opt",
          "type": "uint256"
        },
        {
          "internalType": "uint256",
          "name": "dx",
          "type": "uint256"
        },
        {
          "internalType": "bool",
          "name": "isBuy",
          "type": "bool"
        }
      ],
      "name": "calculateOptionChange",
      "outputs": [
        {
          "internalType": "uint256",
          "name": "dy",
          "type": "uint256"
        },
        {
          "internalType": "uint256",
          "name": "newCollateralBalance",
          "type": "uint256"
        },
        {
          "internalType": "uint256",
          "name": "newOptionBalance",
          "type": "uint256"
        }
      ],
      "stateMutability": "view",
      "type": "function"
    },
    {
      "inputs": [
        {
          "internalType": "address",
          "name": "",
          "type": "address"
        }
      ],
      "name": "isTransactionActive",
      "outputs": [
        {
          "internalType": "bool",
          "name": "",
          "type": "bool"
        }
      ],
      "stateMutability": "view",
      "type": "function"
    },
    {
      "inputs": [
        {
          "internalType": "address",
          "name": "operator",
          "type": "address"
        },
        {
          "internalType": "address",
          "name": "from",
          "type": "address"
        },
        {
          "internalType": "uint256",
          "name": "id",
          "type": "uint256"
        },
        {
          "internalType": "uint256",
          "name": "value",
          "type": "uint256"
        },
        {
          "internalType": "bytes",
          "name": "data",
          "type": "bytes"
        }
      ],
      "name": "onERC1155Received",
      "outputs": [
        {
          "internalType": "bytes4",
          "name": "",
          "type": "bytes4"
        }
      ],
      "stateMutability": "nonpayable",
      "type": "function"
    },
    {
      "inputs": [
        {
          "internalType": "address",
          "name": "target",
          "type": "address"
        }
      ],
      "name": "redeemCollateral",
      "outputs": [],
      "stateMutability": "nonpayable",
      "type": "function"
    },
    {
      "inputs": [
        {
          "internalType": "address",
          "name": "",
          "type": "address"
        },
        {
          "internalType": "address",
          "name": "",
          "type": "address"
        }
      ],
      "name": "safeRedeem",
      "outputs": [
        {
          "internalType": "uint256",
          "name": "",
          "type": "uint256"
        }
      ],
      "stateMutability": "view",
      "type": "function"
    },
    {
      "inputs": [
        {
          "internalType": "address",
          "name": "target",
          "type": "address"
        },
        {
          "internalType": "uint256",
          "name": "opt",
          "type": "uint256"
        },
        {
          "internalType": "uint256",
          "name": "dx",
          "type": "uint256"
        }
      ],
      "name": "sellOption",
      "outputs": [
        {
          "internalType": "uint256",
          "name": "dy",
          "type": "uint256"
        }
      ],
      "stateMutability": "nonpayable",
      "type": "function"
    }
  ],
  "bytecode": "0x6080604052348015600f57600080fd5b50612ad88061001f6000396000f3fe608060405234801561001057600080fd5b50600436106100885760003560e01c8063d9f8a0071161005b578063d9f8a0071461014f578063e92efff614610180578063f23a6e611461019c578063f46ea4bd146101cc57610088565b806306b493811461008d57806312b8ef40146100bd57806319ff5050146100ed578063c032239a1461011f575b600080fd5b6100a760048036038101906100a29190611c24565b6101e8565b6040516100b49190611c6c565b60405180910390f35b6100d760048036038101906100d29190611cbd565b610208565b6040516100e49190611d1f565b60405180910390f35b61010760048036038101906101029190611d66565b6105a5565b60405161011693929190611dcd565b60405180910390f35b61013960048036038101906101349190611e04565b6108b9565b6040516101469190611d1f565b60405180910390f35b61016960048036038101906101649190611cbd565b6108de565b604051610177929190611e44565b60405180910390f35b61019a60048036038101906101959190611c24565b610ecd565b005b6101b660048036038101906101b19190611ed2565b6111e9565b6040516101c39190611fa7565b60405180910390f35b6101e660048036038101906101e19190611c24565b6111ff565b005b60006020528060005260406000206000915054906101000a900460ff1681565b60008015156000803373ffffffffffffffffffffffffffffffffffffffff1673ffffffffffffffffffffffffffffffffffffffff16815260200190815260200160002060009054906101000a900460ff1615151461029b576040517f08c379a00000000000000000000000000000000000000000000000000000000081526004016102929061201f565b60405180910390fd5b60008490506000806000808473ffffffffffffffffffffffffffffffffffffffff16632d10fa286040518163ffffffff1660e01b8152600401600060405180830381865afa1580156102f1573d6000803e3d6000fd5b505050506040513d6000823e3d601f19601f8201168201806040525081019061031a91906122bb565b98509850985050505050945050600115158115151461036e576040517f08c379a000000000000000000000000000000000000000000000000000000000815260040161036590612409565b60405180910390fd5b815188106103b1576040517f08c379a00000000000000000000000000000000000000000000000000000000081526004016103a890612475565b60405180910390fd5b600087116103f4576040517f08c379a00000000000000000000000000000000000000000000000000000000081526004016103eb90612507565b60405180910390fd5b428310156104155761040789858a611454565b60009550505050505061059e565b60008573ffffffffffffffffffffffffffffffffffffffff16630fb0d9eb6040518163ffffffff1660e01b8152600401602060405180830381865afa158015610462573d6000803e3d6000fd5b505050506040513d601f19601f820116820180604052508101906104869190612527565b905060008673ffffffffffffffffffffffffffffffffffffffff16635b5f45638b6040518263ffffffff1660e01b81526004016104c39190611d1f565b602060405180830381865afa1580156104e0573d6000803e3d6000fd5b505050506040513d601f19601f820116820180604052508101906105049190612527565b9050600081836105149190612583565b9050818a1115610559576040517f08c379a000000000000000000000000000000000000000000000000000000000815260040161055090612611565b60405180910390fd5b60008a836105679190612631565b9050600061057583836118bf565b905080856105839190612665565b9a506105938e8e8d8f8587611918565b505050505050505050505b9392505050565b60008060008087905060008173ffffffffffffffffffffffffffffffffffffffff16632d10fa286040518163ffffffff1660e01b8152600401600060405180830381865afa1580156105fb573d6000803e3d6000fd5b505050506040513d6000823e3d601f19601f8201168201806040525081019061062491906122bb565b5097505050505050505080518810610671576040517f08c379a000000000000000000000000000000000000000000000000000000000815260040161066890612475565b60405180910390fd5b600087116106b4576040517f08c379a00000000000000000000000000000000000000000000000000000000081526004016106ab90612507565b60405180910390fd5b60008273ffffffffffffffffffffffffffffffffffffffff16630fb0d9eb6040518163ffffffff1660e01b8152600401602060405180830381865afa158015610701573d6000803e3d6000fd5b505050506040513d601f19601f820116820180604052508101906107259190612527565b905060008373ffffffffffffffffffffffffffffffffffffffff16635b5f45638b6040518263ffffffff1660e01b81526004016107629190611d1f565b602060405180830381865afa15801561077f573d6000803e3d6000fd5b505050506040513d601f19601f820116820180604052508101906107a39190612527565b9050600081836107b39190612583565b90506000808a156107ed578b856107ca9190612631565b915081836107d891906126c8565b905080846107e69190612665565b995061089f565b838c1115610830576040517f08c379a000000000000000000000000000000000000000000000000000000000815260040161082790612611565b60405180910390fd5b8b8461083c9190612631565b90506000818461084c91906126c8565b90506000828561085c91906126f9565b905060008382600261086e9190612583565b101561087a5782610888565b6001836108879190612631565b5b905080945084886108999190612665565b9c505050505b898282995099509950505050505050509450945094915050565b6001602052816000526040600020602052806000526040600020600091509150505481565b600080600015156000803373ffffffffffffffffffffffffffffffffffffffff1673ffffffffffffffffffffffffffffffffffffffff16815260200190815260200160002060009054906101000a900460ff16151514610973576040517f08c379a000000000000000000000000000000000000000000000000000000000815260040161096a9061201f565b60405180910390fd5b60008590506000808273ffffffffffffffffffffffffffffffffffffffff16632d10fa286040518163ffffffff1660e01b8152600401600060405180830381865afa1580156109c6573d6000803e3d6000fd5b505050506040513d6000823e3d601f19601f820116820180604052508101906109ef91906122bb565b98509850505050505050506001151581151514610a41576040517f08c379a0000000000000000000000000000000000000000000000000000000008152600401610a3890612409565b60405180910390fd5b81518710610a84576040517f08c379a0000000000000000000000000000000000000000000000000000000008152600401610a7b90612475565b60405180910390fd5b60008611610ac7576040517f08c379a0000000000000000000000000000000000000000000000000000000008152600401610abe90612507565b60405180910390fd5b60008373ffffffffffffffffffffffffffffffffffffffff16630fb0d9eb6040518163ffffffff1660e01b8152600401602060405180830381865afa158015610b14573d6000803e3d6000fd5b505050506040513d601f19601f82011682018060405250810190610b389190612527565b905060008473ffffffffffffffffffffffffffffffffffffffff16635b5f45638a6040518263ffffffff1660e01b8152600401610b759190611d1f565b602060405180830381865afa158015610b92573d6000803e3d6000fd5b505050506040513d601f19601f82011682018060405250810190610bb69190612527565b905060008183610bc69190612583565b9050888673ffffffffffffffffffffffffffffffffffffffff1663eae99684336040518263ffffffff1660e01b8152600401610c029190612739565b602060405180830381865afa158015610c1f573d6000803e3d6000fd5b505050506040513d601f19601f82011682018060405250810190610c439190612527565b14610c83576040517f08c379a0000000000000000000000000000000000000000000000000000000008152600401610c7a906127a0565b60405180910390fd5b60008984610c919190612631565b905060008183610ca191906126c8565b90508084610caf9190612665565b98508773ffffffffffffffffffffffffffffffffffffffff1663d320353b836040518263ffffffff1660e01b8152600401610cea9190611d1f565b600060405180830381600087803b158015610d0457600080fd5b505af1158015610d18573d6000803e3d6000fd5b505050508773ffffffffffffffffffffffffffffffffffffffff1663be914d8f8d836040518363ffffffff1660e01b8152600401610d57929190611e44565b600060405180830381600087803b158015610d7157600080fd5b505af1158015610d85573d6000803e3d6000fd5b505050508773ffffffffffffffffffffffffffffffffffffffff1663dfbd48bb338e8c6040518463ffffffff1660e01b8152600401610dc6939291906127c0565b600060405180830381600087803b158015610de057600080fd5b505af1158015610df4573d6000803e3d6000fd5b505050508773ffffffffffffffffffffffffffffffffffffffff16635b51950e3360006040518363ffffffff1660e01b8152600401610e3492919061283c565b600060405180830381600087803b158015610e4e57600080fd5b505af1158015610e62573d6000803e3d6000fd5b5050505060008060003373ffffffffffffffffffffffffffffffffffffffff1673ffffffffffffffffffffffffffffffffffffffff16815260200190815260200160002060006101000a81548160ff0219169083151502179055505050505050505050935093915050565b600115156000803373ffffffffffffffffffffffffffffffffffffffff1673ffffffffffffffffffffffffffffffffffffffff16815260200190815260200160002060009054906101000a900460ff16151514610f5f576040517f08c379a0000000000000000000000000000000000000000000000000000000008152600401610f56906128b1565b60405180910390fd5b6000600160008373ffffffffffffffffffffffffffffffffffffffff1673ffffffffffffffffffffffffffffffffffffffff16815260200190815260200160002060003373ffffffffffffffffffffffffffffffffffffffff1673ffffffffffffffffffffffffffffffffffffffff168152602001908152602001600020541161101e576040517f08c379a00000000000000000000000000000000000000000000000000000000081526004016110159061291d565b60405180910390fd5b60008190508073ffffffffffffffffffffffffffffffffffffffff1663494fcc0f33600160008673ffffffffffffffffffffffffffffffffffffffff1673ffffffffffffffffffffffffffffffffffffffff16815260200190815260200160002060003373ffffffffffffffffffffffffffffffffffffffff1673ffffffffffffffffffffffffffffffffffffffff168152602001908152602001600020546040518363ffffffff1660e01b81526004016110da92919061293d565b600060405180830381600087803b1580156110f457600080fd5b505af1158015611108573d6000803e3d6000fd5b505050506000600160008473ffffffffffffffffffffffffffffffffffffffff1673ffffffffffffffffffffffffffffffffffffffff16815260200190815260200160002060003373ffffffffffffffffffffffffffffffffffffffff1673ffffffffffffffffffffffffffffffffffffffff1681526020019081526020016000208190555060008060003373ffffffffffffffffffffffffffffffffffffffff1673ffffffffffffffffffffffffffffffffffffffff16815260200190815260200160002060006101000a81548160ff0219169083151502179055505050565b600063f23a6e6160e01b90509695505050505050565b600115156000803373ffffffffffffffffffffffffffffffffffffffff1673ffffffffffffffffffffffffffffffffffffffff16815260200190815260200160002060009054906101000a900460ff16151514611291576040517f08c379a0000000000000000000000000000000000000000000000000000000008152600401611288906128b1565b60405180910390fd5b600081905060008173ffffffffffffffffffffffffffffffffffffffff16632d10fa286040518163ffffffff1660e01b8152600401600060405180830381865afa1580156112e3573d6000803e3d6000fd5b505050506040513d6000823e3d601f19601f8201168201806040525081019061130c91906122bb565b505050505050925050508073ffffffffffffffffffffffffffffffffffffffff1663095ea7b330600160008773ffffffffffffffffffffffffffffffffffffffff1673ffffffffffffffffffffffffffffffffffffffff16815260200190815260200160002060003373ffffffffffffffffffffffffffffffffffffffff1673ffffffffffffffffffffffffffffffffffffffff168152602001908152602001600020546040518363ffffffff1660e01b81526004016113cd92919061293d565b6020604051808303816000875af11580156113ec573d6000803e3d6000fd5b505050506040513d601f19601f820116820180604052508101906114109190612966565b61144f576040517f08c379a0000000000000000000000000000000000000000000000000000000008152600401611446906129df565b60405180910390fd5b505050565b6000829050818173ffffffffffffffffffffffffffffffffffffffff1663de2927896040518163ffffffff1660e01b8152600401602060405180830381865afa1580156114a5573d6000803e3d6000fd5b505050506040513d601f19601f820116820180604052508101906114c99190612527565b14611509576040517f08c379a000000000000000000000000000000000000000000000000000000000815260040161150090612a4b565b60405180910390fd5b600084905060008173ffffffffffffffffffffffffffffffffffffffff16630fb0d9eb6040518163ffffffff1660e01b8152600401602060405180830381865afa15801561155b573d6000803e3d6000fd5b505050506040513d601f19601f8201168201806040525081019061157f9190612527565b905060008273ffffffffffffffffffffffffffffffffffffffff16635b5f4563866040518263ffffffff1660e01b81526004016115bc9190611d1f565b602060405180830381865afa1580156115d9573d6000803e3d6000fd5b505050506040513d601f19601f820116820180604052508101906115fd9190612527565b905060008373ffffffffffffffffffffffffffffffffffffffff166351dd442c33886040518363ffffffff1660e01b815260040161163c92919061293d565b602060405180830381865afa158015611659573d6000803e3d6000fd5b505050506040513d601f19601f8201168201806040525081019061167d9190612527565b905080600160008a73ffffffffffffffffffffffffffffffffffffffff1673ffffffffffffffffffffffffffffffffffffffff16815260200190815260200160002060003373ffffffffffffffffffffffffffffffffffffffff1673ffffffffffffffffffffffffffffffffffffffff168152602001908152602001600020819055508373ffffffffffffffffffffffffffffffffffffffff1663d320353b82856117289190612665565b6040518263ffffffff1660e01b81526004016117449190611d1f565b600060405180830381600087803b15801561175e57600080fd5b505af1158015611772573d6000803e3d6000fd5b505050508373ffffffffffffffffffffffffffffffffffffffff1663be914d8f87838561179f9190612631565b6040518363ffffffff1660e01b81526004016117bc929190611e44565b600060405180830381600087803b1580156117d657600080fd5b505af11580156117ea573d6000803e3d6000fd5b505050508373ffffffffffffffffffffffffffffffffffffffff1663dfbd48bb338860006040518463ffffffff1660e01b815260040161182c93929190612a6b565b600060405180830381600087803b15801561184657600080fd5b505af115801561185a573d6000803e3d6000fd5b5050505060016000803373ffffffffffffffffffffffffffffffffffffffff1673ffffffffffffffffffffffffffffffffffffffff16815260200190815260200160002060006101000a81548160ff0219169083151502179055505050505050505050565b60008082846118ce91906126c8565b9050600083856118de91906126f9565b90506000848260026118f09190612583565b10156118fc578261190a565b6001836119099190612631565b5b905080935050505092915050565b60008690508073ffffffffffffffffffffffffffffffffffffffff1663d320353b846040518263ffffffff1660e01b81526004016119569190611d1f565b600060405180830381600087803b15801561197057600080fd5b505af1158015611984573d6000803e3d6000fd5b505050508073ffffffffffffffffffffffffffffffffffffffff1663be914d8f87846040518363ffffffff1660e01b81526004016119c3929190611e44565b600060405180830381600087803b1580156119dd57600080fd5b505af11580156119f1573d6000803e3d6000fd5b505050508073ffffffffffffffffffffffffffffffffffffffff1663dfbd48bb3388876040518463ffffffff1660e01b8152600401611a32939291906127c0565b600060405180830381600087803b158015611a4c57600080fd5b505af1158015611a60573d6000803e3d6000fd5b505050508073ffffffffffffffffffffffffffffffffffffffff16634138c4f533876040518363ffffffff1660e01b8152600401611a9f92919061293d565b600060405180830381600087803b158015611ab957600080fd5b505af1158015611acd573d6000803e3d6000fd5b5050505084600160008973ffffffffffffffffffffffffffffffffffffffff1673ffffffffffffffffffffffffffffffffffffffff16815260200190815260200160002060003373ffffffffffffffffffffffffffffffffffffffff1673ffffffffffffffffffffffffffffffffffffffff1681526020019081526020016000208190555060016000803373ffffffffffffffffffffffffffffffffffffffff1673ffffffffffffffffffffffffffffffffffffffff16815260200190815260200160002060006101000a81548160ff02191690831515021790555050505050505050565b6000604051905090565b600080fd5b600080fd5b600073ffffffffffffffffffffffffffffffffffffffff82169050919050565b6000611bf182611bc6565b9050919050565b611c0181611be6565b8114611c0c57600080fd5b50565b600081359050611c1e81611bf8565b92915050565b600060208284031215611c3a57611c39611bbc565b5b6000611c4884828501611c0f565b91505092915050565b60008115159050919050565b611c6681611c51565b82525050565b6000602082019050611c816000830184611c5d565b92915050565b6000819050919050565b611c9a81611c87565b8114611ca557600080fd5b50565b600081359050611cb781611c91565b92915050565b600080600060608486031215611cd657611cd5611bbc565b5b6000611ce486828701611c0f565b9350506020611cf586828701611ca8565b9250506040611d0686828701611ca8565b9150509250925092565b611d1981611c87565b82525050565b6000602082019050611d346000830184611d10565b92915050565b611d4381611c51565b8114611d4e57600080fd5b50565b600081359050611d6081611d3a565b92915050565b60008060008060808587031215611d8057611d7f611bbc565b5b6000611d8e87828801611c0f565b9450506020611d9f87828801611ca8565b9350506040611db087828801611ca8565b9250506060611dc187828801611d51565b91505092959194509250565b6000606082019050611de26000830186611d10565b611def6020830185611d10565b611dfc6040830184611d10565b949350505050565b60008060408385031215611e1b57611e1a611bbc565b5b6000611e2985828601611c0f565b9250506020611e3a85828601611c0f565b9150509250929050565b6000604082019050611e596000830185611d10565b611e666020830184611d10565b9392505050565b600080fd5b600080fd5b600080fd5b60008083601f840112611e9257611e91611e6d565b5b8235905067ffffffffffffffff811115611eaf57611eae611e72565b5b602083019150836001820283011115611ecb57611eca611e77565b5b9250929050565b60008060008060008060a08789031215611eef57611eee611bbc565b5b6000611efd89828a01611c0f565b9650506020611f0e89828a01611c0f565b9550506040611f1f89828a01611ca8565b9450506060611f3089828a01611ca8565b935050608087013567ffffffffffffffff811115611f5157611f50611bc1565b5b611f5d89828a01611e7c565b92509250509295509295509295565b60007fffffffff0000000000000000000000000000000000000000000000000000000082169050919050565b611fa181611f6c565b82525050565b6000602082019050611fbc6000830184611f98565b92915050565b600082825260208201905092915050565b7f4e6f77207472616e73616374696f6e206163746976652e000000000000000000600082015250565b6000612009601783611fc2565b915061201482611fd3565b602082019050919050565b6000602082019050818103600083015261203881611ffc565b9050919050565b600080fd5b6000601f19601f8301169050919050565b7f4e487b7100000000000000000000000000000000000000000000000000000000600052604160045260246000fd5b61208d82612044565b810181811067ffffffffffffffff821117156120ac576120ab612055565b5b80604052505050565b60006120bf611bb2565b90506120cb8282612084565b919050565b600067ffffffffffffffff8211156120eb576120ea612055565b5b6120f482612044565b9050602081019050919050565b60005b8381101561211f578082015181840152602081019050612104565b60008484015250505050565b600061213e612139846120d0565b6120b5565b90508281526020810184848401111561215a5761215961203f565b5b612165848285612101565b509392505050565b600082601f83011261218257612181611e6d565b5b815161219284826020860161212b565b91505092915050565b6000815190506121aa81611bf8565b92915050565b6000815190506121bf81611c91565b92915050565b600067ffffffffffffffff8211156121e0576121df612055565b5b602082029050602081019050919050565b60006122046121ff846121c5565b6120b5565b9050808382526020820190506020840283018581111561222757612226611e77565b5b835b8181101561226e57805167ffffffffffffffff81111561224c5761224b611e6d565b5b808601612259898261216d565b85526020850194505050602081019050612229565b5050509392505050565b600082601f83011261228d5761228c611e6d565b5b815161229d8482602086016121f1565b91505092915050565b6000815190506122b581611d3a565b92915050565b60008060008060008060008060006101208a8c0312156122de576122dd611bbc565b5b60008a015167ffffffffffffffff8111156122fc576122fb611bc1565b5b6123088c828d0161216d565b99505060206123198c828d0161219b565b985050604061232a8c828d0161219b565b975050606061233b8c828d016121b0565b965050608061234c8c828d016121b0565b95505060a061235d8c828d016121b0565b94505060c061236e8c828d016121b0565b93505060e08a015167ffffffffffffffff81111561238f5761238e611bc1565b5b61239b8c828d01612278565b9250506101006123ad8c828d016122a6565b9150509295985092959850929598565b7f54686973206d61726b6574206973206e6f74206f70656e2e0000000000000000600082015250565b60006123f3601883611fc2565b91506123fe826123bd565b602082019050919050565b60006020820190508181036000830152612422816123e6565b9050919050565b7f496e76616c6964206f7074696f6e2073656c6563746564000000000000000000600082015250565b600061245f601783611fc2565b915061246a82612429565b602082019050919050565b6000602082019050818103600083015261248e81612452565b9050919050565b7f4465706f73697420616d6f756e74206d7573742062652067726561746572207460008201527f68616e207a65726f000000000000000000000000000000000000000000000000602082015250565b60006124f1602883611fc2565b91506124fc82612495565b604082019050919050565b60006020820190508181036000830152612520816124e4565b9050919050565b60006020828403121561253d5761253c611bbc565b5b600061254b848285016121b0565b91505092915050565b7f4e487b7100000000000000000000000000000000000000000000000000000000600052601160045260246000fd5b600061258e82611c87565b915061259983611c87565b92508282026125a781611c87565b915082820484148315176125be576125bd612554565b5b5092915050565b7f496e73756666696369656e74206f7074696f6e7320696e20706f6f6c00000000600082015250565b60006125fb601c83611fc2565b9150612606826125c5565b602082019050919050565b6000602082019050818103600083015261262a816125ee565b9050919050565b600061263c82611c87565b915061264783611c87565b925082820190508082111561265f5761265e612554565b5b92915050565b600061267082611c87565b915061267b83611c87565b925082820390508181111561269357612692612554565b5b92915050565b7f4e487b7100000000000000000000000000000000000000000000000000000000600052601260045260246000fd5b60006126d382611c87565b91506126de83611c87565b9250826126ee576126ed612699565b5b828204905092915050565b600061270482611c87565b915061270f83611c87565b92508261271f5761271e612699565b5b828206905092915050565b61273381611be6565b82525050565b600060208201905061274e600083018461272a565b92915050565b7f4465706f73697420616d6f756e7420646f6573206e6f74206d617463682e0000600082015250565b600061278a601e83611fc2565b915061279582612754565b602082019050919050565b600060208201905081810360008301526127b98161277d565b9050919050565b60006060820190506127d5600083018661272a565b6127e26020830185611d10565b6127ef6040830184611d10565b949350505050565b6000819050919050565b6000819050919050565b600061282661282161281c846127f7565b612801565b611c87565b9050919050565b6128368161280b565b82525050565b6000604082019050612851600083018561272a565b61285e602083018461282d565b9392505050565b7f4e6f77207472616e73616374696f6e206e6f74206163746976652e0000000000600082015250565b600061289b601b83611fc2565b91506128a682612865565b602082019050919050565b600060208201905081810360008301526128ca8161288e565b9050919050565b7f4e6f74206465706f73697465642e000000000000000000000000000000000000600082015250565b6000612907600e83611fc2565b9150612912826128d1565b602082019050919050565b60006020820190508181036000830152612936816128fa565b9050919050565b6000604082019050612952600083018561272a565b61295f6020830184611d10565b9392505050565b60006020828403121561297c5761297b611bbc565b5b600061298a848285016122a6565b91505092915050565b7f436f6c6c61746572616c20746f6b656e207472616e73666572206661696c6564600082015250565b60006129c9602083611fc2565b91506129d482612993565b602082019050919050565b600060208201905081810360008301526129f8816129bc565b9050919050565b7f546865207072696365206f662074686973206f7074696f6e20697320302e0000600082015250565b6000612a35601e83611fc2565b9150612a40826129ff565b602082019050919050565b60006020820190508181036000830152612a6481612a28565b9050919050565b6000606082019050612a80600083018661272a565b612a8d6020830185611d10565b612a9a604083018461282d565b94935050505056fea2646970667358221220f475c3f113cac281e98d32c69620299c885bd681ef13486d10b8e2e08cd6b30e64736f6c634300081b0033",
  "linkReferences": {},
  "deployedLinkReferences": {}
}