{
  "_format": "hh-sol-artifact-1",
  "contractName": "OChainlinkPrice",
  "sourceName": "contracts/Oracle/OChainlinkPrice.sol",
  "abi": [
    {
      "inputs": [
        {
          "internalType": "address",
          "name": "_owner",
          "type": "address"
        },
        {
          "internalType": "address",
          "name": "dataFeedAddress",
          "type": "address"
        },
        {
          "internalType": "uint256",
          "name": "_settlementTimestamp",
          "type": "uint256"
        },
        {
          "internalType": "uint256",
          "name": "_border",
          "type": "uint256"
        }
      ],
      "stateMutability": "nonpayable",
      "type": "constructor"
    },
    {
      "anonymous": false,
      "inputs": [
        {
          "indexed": false,
          "internalType": "int256",
          "name": "price",
          "type": "int256"
        },
        {
          "indexed": false,
          "internalType": "uint256",
          "name": "timestamp",
          "type": "uint256"
        }
      ],
      "name": "PriceSet",
      "type": "event"
    },
    {
      "inputs": [],
      "name": "border",
      "outputs": [
        {
          "internalType": "uint256",
          "name": "",
          "type": "uint256"
        }
      ],
      "stateMutability": "view",
      "type": "function"
    },
    {
      "inputs": [],
      "name": "data",
      "outputs": [
        {
          "internalType": "uint256",
          "name": "",
          "type": "uint256"
        }
      ],
      "stateMutability": "view",
      "type": "function"
    },
    {
      "inputs": [],
      "name": "dataFeed",
      "outputs": [
        {
          "internalType": "contract AggregatorV3Interface",
          "name": "",
          "type": "address"
        }
      ],
      "stateMutability": "view",
      "type": "function"
    },
    {
      "inputs": [],
      "name": "fetchSettlementPrice",
      "outputs": [],
      "stateMutability": "nonpayable",
      "type": "function"
    },
    {
      "inputs": [],
      "name": "getResult",
      "outputs": [
        {
          "internalType": "uint256",
          "name": "",
          "type": "uint256"
        }
      ],
      "stateMutability": "view",
      "type": "function"
    },
    {
      "inputs": [],
      "name": "getSettlementPrice",
      "outputs": [
        {
          "internalType": "int256",
          "name": "",
          "type": "int256"
        }
      ],
      "stateMutability": "view",
      "type": "function"
    },
    {
      "inputs": [],
      "name": "isPriceSet",
      "outputs": [
        {
          "internalType": "bool",
          "name": "",
          "type": "bool"
        }
      ],
      "stateMutability": "view",
      "type": "function"
    },
    {
      "inputs": [],
      "name": "owner",
      "outputs": [
        {
          "internalType": "address",
          "name": "",
          "type": "address"
        }
      ],
      "stateMutability": "view",
      "type": "function"
    },
    {
      "inputs": [],
      "name": "settlementPrice",
      "outputs": [
        {
          "internalType": "int256",
          "name": "",
          "type": "int256"
        }
      ],
      "stateMutability": "view",
      "type": "function"
    },
    {
      "inputs": [],
      "name": "settlementTimestamp",
      "outputs": [
        {
          "internalType": "uint256",
          "name": "",
          "type": "uint256"
        }
      ],
      "stateMutability": "view",
      "type": "function"
    }
  ],
  "bytecode": "0x6080604052600160055534801561001557600080fd5b50604051610d75380380610d7583398181016040528101906100379190610183565b836000806101000a81548173ffffffffffffffffffffffffffffffffffffffff021916908373ffffffffffffffffffffffffffffffffffffffff16021790555082600160006101000a81548173ffffffffffffffffffffffffffffffffffffffff021916908373ffffffffffffffffffffffffffffffffffffffff16021790555081600281905550806004819055506000600660006101000a81548160ff021916908315150217905550505050506101ea565b600080fd5b600073ffffffffffffffffffffffffffffffffffffffff82169050919050565b600061011a826100ef565b9050919050565b61012a8161010f565b811461013557600080fd5b50565b60008151905061014781610121565b92915050565b6000819050919050565b6101608161014d565b811461016b57600080fd5b50565b60008151905061017d81610157565b92915050565b6000806000806080858703121561019d5761019c6100ea565b5b60006101ab87828801610138565b94505060206101bc87828801610138565b93505060406101cd8782880161016e565b92505060606101de8782880161016e565b91505092959194509250565b610b7c806101f96000396000f3fe608060405234801561001057600080fd5b506004361061009e5760003560e01c80639e42ff90116100665780639e42ff9014610125578063de29278914610143578063eb159e9e14610161578063ec2c0e631461017f578063f348e8b21461019d5761009e565b80633cc6a838146100a357806373d4a13a146100c15780638192a437146100df5780638da5cb5b146100fd5780638dbcedf01461011b575b600080fd5b6100ab6101bb565b6040516100b89190610631565b60405180910390f35b6100c96101c1565b6040516100d69190610631565b60405180910390f35b6100e76101c7565b6040516100f49190610631565b60405180910390f35b6101056101cd565b604051610112919061068d565b60405180910390f35b6101236101f1565b005b61012d610576565b60405161013a9190610707565b60405180910390f35b61014b61059c565b6040516101589190610631565b60405180910390f35b6101696105a6565b604051610176919061073d565b60405180910390f35b6101876105b9565b6040516101949190610771565b60405180910390f35b6101a5610612565b6040516101b29190610771565b60405180910390f35b60045481565b60055481565b60025481565b60008054906101000a900473ffffffffffffffffffffffffffffffffffffffff1681565b60008054906101000a900473ffffffffffffffffffffffffffffffffffffffff1673ffffffffffffffffffffffffffffffffffffffff163373ffffffffffffffffffffffffffffffffffffffff161461027f576040517f08c379a0000000000000000000000000000000000000000000000000000000008152600401610276906107e9565b60405180910390fd5b6002544210156102c4576040517f08c379a00000000000000000000000000000000000000000000000000000000081526004016102bb90610855565b60405180910390fd5b600660009054906101000a900460ff1615610314576040517f08c379a000000000000000000000000000000000000000000000000000000000815260040161030b906108c1565b60405180910390fd5b6000600160009054906101000a900473ffffffffffffffffffffffffffffffffffffffff1673ffffffffffffffffffffffffffffffffffffffff1663feaf968c6040518163ffffffff1660e01b815260040160a060405180830381865afa158015610383573d6000803e3d6000fd5b505050506040513d601f19601f820116820180604052508101906103a79190610980565b505050509050600081905060007fffffffffffffffffffffffffffffffffffffffffffffffffffffffffffffffff905060005b60008369ffffffffffffffffffff1611156104f557600160009054906101000a900473ffffffffffffffffffffffffffffffffffffffff1673ffffffffffffffffffffffffffffffffffffffff16639a6fc8f5846040518263ffffffff1660e01b815260040161044a9190610a0a565b60a060405180830381865afa92505050801561048457506040513d601f19601f820116820180604052508101906104819190610980565b60015b156104f557600060025483116104a757826002546104a29190610a54565b6104b6565b600254836104b59190610a54565b5b9050878110156104c7578097508496505b6002548310156104dc575050505050506104f5565b50505050505082806104ed90610a88565b9350506103da565b806003819055506001600660006101000a81548160ff0219169083151502179055506004546003541361052957600261052c565b60015b60ff166005819055507f29124e4d619e88b80a588e8e051b7f81b395668288c3f374006d77b98b71b5b660035442604051610568929190610ab1565b60405180910390a150505050565b600160009054906101000a900473ffffffffffffffffffffffffffffffffffffffff1681565b6000600554905090565b600660009054906101000a900460ff1681565b6000600660009054906101000a900460ff1661060a576040517f08c379a000000000000000000000000000000000000000000000000000000000815260040161060190610b26565b60405180910390fd5b600354905090565b60035481565b6000819050919050565b61062b81610618565b82525050565b60006020820190506106466000830184610622565b92915050565b600073ffffffffffffffffffffffffffffffffffffffff82169050919050565b60006106778261064c565b9050919050565b6106878161066c565b82525050565b60006020820190506106a2600083018461067e565b92915050565b6000819050919050565b60006106cd6106c86106c38461064c565b6106a8565b61064c565b9050919050565b60006106df826106b2565b9050919050565b60006106f1826106d4565b9050919050565b610701816106e6565b82525050565b600060208201905061071c60008301846106f8565b92915050565b60008115159050919050565b61073781610722565b82525050565b6000602082019050610752600083018461072e565b92915050565b6000819050919050565b61076b81610758565b82525050565b60006020820190506107866000830184610762565b92915050565b600082825260208201905092915050565b7f4e6f7420746865206f776e657200000000000000000000000000000000000000600082015250565b60006107d3600d8361078c565b91506107de8261079d565b602082019050919050565b60006020820190508181036000830152610802816107c6565b9050919050565b7f536574746c656d656e742074696d65206e6f7420726561636865640000000000600082015250565b600061083f601b8361078c565b915061084a82610809565b602082019050919050565b6000602082019050818103600083015261086e81610832565b9050919050565b7f507269636520616c726561647920736574000000000000000000000000000000600082015250565b60006108ab60118361078c565b91506108b682610875565b602082019050919050565b600060208201905081810360008301526108da8161089e565b9050919050565b600080fd5b600069ffffffffffffffffffff82169050919050565b610905816108e6565b811461091057600080fd5b50565b600081519050610922816108fc565b92915050565b61093181610758565b811461093c57600080fd5b50565b60008151905061094e81610928565b92915050565b61095d81610618565b811461096857600080fd5b50565b60008151905061097a81610954565b92915050565b600080600080600060a0868803121561099c5761099b6108e1565b5b60006109aa88828901610913565b95505060206109bb8882890161093f565b94505060406109cc8882890161096b565b93505060606109dd8882890161096b565b92505060806109ee88828901610913565b9150509295509295909350565b610a04816108e6565b82525050565b6000602082019050610a1f60008301846109fb565b92915050565b7f4e487b7100000000000000000000000000000000000000000000000000000000600052601160045260246000fd5b6000610a5f82610618565b9150610a6a83610618565b9250828203905081811115610a8257610a81610a25565b5b92915050565b6000610a93826108e6565b915060008203610aa657610aa5610a25565b5b600182039050919050565b6000604082019050610ac66000830185610762565b610ad36020830184610622565b9392505050565b7f536574746c656d656e74207072696365206e6f74207365742079657400000000600082015250565b6000610b10601c8361078c565b9150610b1b82610ada565b602082019050919050565b60006020820190508181036000830152610b3f81610b03565b905091905056fea2646970667358221220b620ced6adc76ced09b6a9db32740c276334f1a1096c6a0151766a84324863f164736f6c634300081b0033",
  "linkReferences": {},
  "deployedLinkReferences": {}
}