{
  "_format": "hh-sol-artifact-1",
  "contractName": "OFactory",
  "sourceName": "contracts/Oracle/OFactory.sol",
  "abi": [
    {
      "anonymous": false,
      "inputs": [
        {
          "indexed": true,
          "internalType": "address",
          "name": "oracleAddress",
          "type": "address"
        },
        {
          "indexed": true,
          "internalType": "address",
          "name": "owner",
          "type": "address"
        },
        {
          "indexed": true,
          "internalType": "address",
          "name": "worldIdOwner",
          "type": "address"
        }
      ],
      "name": "OracleDeployed",
      "type": "event"
    },
    {
      "inputs": [
        {
          "internalType": "address",
          "name": "_dataFeed",
          "type": "address"
        },
        {
          "internalType": "uint256",
          "name": "settlementTimestamp",
          "type": "uint256"
        },
        {
          "internalType": "uint256",
          "name": "_border",
          "type": "uint256"
        }
      ],
      "name": "createOChainlinkPrice",
      "outputs": [
        {
          "internalType": "address",
          "name": "",
          "type": "address"
        }
      ],
      "stateMutability": "nonpayable",
      "type": "function"
    },
    {
      "inputs": [
        {
          "internalType": "address",
          "name": "_worldIdOwner",
          "type": "address"
        }
      ],
      "name": "createOWorld",
      "outputs": [
        {
          "internalType": "address",
          "name": "",
          "type": "address"
        }
      ],
      "stateMutability": "nonpayable",
      "type": "function"
    },
    {
      "inputs": [
        {
          "internalType": "uint256",
          "name": "",
          "type": "uint256"
        }
      ],
      "name": "deployedOracles",
      "outputs": [
        {
          "internalType": "address",
          "name": "",
          "type": "address"
        }
      ],
      "stateMutability": "view",
      "type": "function"
    },
    {
      "inputs": [],
      "name": "getDeployedOracles",
      "outputs": [
        {
          "internalType": "address[]",
          "name": "",
          "type": "address[]"
        }
      ],
      "stateMutability": "view",
      "type": "function"
    }
  ],
  "bytecode": "0x6080604052348015600f57600080fd5b50611bfe8061001f6000396000f3fe608060405234801561001057600080fd5b506004361061004c5760003560e01c80633b51c4d2146100515780635ab69a95146100815780637430527f146100b15780637a66d473146100cf575b600080fd5b61006b6004803603810190610066919061047f565b6100ff565b60405161007891906104bb565b60405180910390f35b61009b6004803603810190610096919061050c565b610217565b6040516100a891906104bb565b60405180910390f35b6100b9610335565b6040516100c6919061061d565b60405180910390f35b6100e960048036038101906100e4919061063f565b6103c3565b6040516100f691906104bb565b60405180910390f35b600080338360405161011090610402565b61011b92919061066c565b604051809103906000f080158015610137573d6000803e3d6000fd5b5090506000819080600181540180825580915050600190039060005260206000200160009091909190916101000a81548173ffffffffffffffffffffffffffffffffffffffff021916908373ffffffffffffffffffffffffffffffffffffffff1602179055508273ffffffffffffffffffffffffffffffffffffffff163373ffffffffffffffffffffffffffffffffffffffff168273ffffffffffffffffffffffffffffffffffffffff167feda2c4880733e8898dd90e2b24d0103189e590895c2057293c19c83ce84ce3b360405160405180910390a480915050919050565b6000803385858560405161022a9061040f565b61023794939291906106a4565b604051809103906000f080158015610253573d6000803e3d6000fd5b5090506000819080600181540180825580915050600190039060005260206000200160009091909190916101000a81548173ffffffffffffffffffffffffffffffffffffffff021916908373ffffffffffffffffffffffffffffffffffffffff1602179055508473ffffffffffffffffffffffffffffffffffffffff163373ffffffffffffffffffffffffffffffffffffffff168273ffffffffffffffffffffffffffffffffffffffff167feda2c4880733e8898dd90e2b24d0103189e590895c2057293c19c83ce84ce3b360405160405180910390a4809150509392505050565b606060008054806020026020016040519081016040528092919081815260200182805480156103b957602002820191906000526020600020905b8160009054906101000a900473ffffffffffffffffffffffffffffffffffffffff1673ffffffffffffffffffffffffffffffffffffffff168152602001906001019080831161036f575b5050505050905090565b600081815481106103d357600080fd5b906000526020600020016000915054906101000a900473ffffffffffffffffffffffffffffffffffffffff1681565b61076a806106ea83390190565b610d7580610e5483390190565b600080fd5b600073ffffffffffffffffffffffffffffffffffffffff82169050919050565b600061044c82610421565b9050919050565b61045c81610441565b811461046757600080fd5b50565b60008135905061047981610453565b92915050565b6000602082840312156104955761049461041c565b5b60006104a38482850161046a565b91505092915050565b6104b581610441565b82525050565b60006020820190506104d060008301846104ac565b92915050565b6000819050919050565b6104e9816104d6565b81146104f457600080fd5b50565b600081359050610506816104e0565b92915050565b6000806000606084860312156105255761052461041c565b5b60006105338682870161046a565b9350506020610544868287016104f7565b9250506040610555868287016104f7565b9150509250925092565b600081519050919050565b600082825260208201905092915050565b6000819050602082019050919050565b61059481610441565b82525050565b60006105a6838361058b565b60208301905092915050565b6000602082019050919050565b60006105ca8261055f565b6105d4818561056a565b93506105df8361057b565b8060005b838110156106105781516105f7888261059a565b9750610602836105b2565b9250506001810190506105e3565b5085935050505092915050565b6000602082019050818103600083015261063781846105bf565b905092915050565b6000602082840312156106555761065461041c565b5b6000610663848285016104f7565b91505092915050565b600060408201905061068160008301856104ac565b61068e60208301846104ac565b9392505050565b61069e816104d6565b82525050565b60006080820190506106b960008301876104ac565b6106c660208301866104ac565b6106d36040830185610695565b6106e06060830184610695565b9594505050505056fe6080604052600160025534801561001557600080fd5b5060405161076a38038061076a83398181016040528101906100379190610122565b816000806101000a81548173ffffffffffffffffffffffffffffffffffffffff021916908373ffffffffffffffffffffffffffffffffffffffff16021790555080600160006101000a81548173ffffffffffffffffffffffffffffffffffffffff021916908373ffffffffffffffffffffffffffffffffffffffff1602179055505050610162565b600080fd5b600073ffffffffffffffffffffffffffffffffffffffff82169050919050565b60006100ef826100c4565b9050919050565b6100ff816100e4565b811461010a57600080fd5b50565b60008151905061011c816100f6565b92915050565b60008060408385031215610139576101386100bf565b5b60006101478582860161010d565b92505060206101588582860161010d565b9150509250929050565b6105f9806101716000396000f3fe608060405234801561001057600080fd5b50600436106100625760003560e01c80635b4b73a91461006757806373d4a13a146100835780638da5cb5b146100a1578063a39aacdf146100bf578063d1efdbac146100dd578063de292789146100f9575b600080fd5b610081600480360381019061007c9190610414565b610117565b005b61008b610255565b6040516100989190610450565b60405180910390f35b6100a961025b565b6040516100b691906104ac565b60405180910390f35b6100c761027f565b6040516100d491906104ac565b60405180910390f35b6100f760048036038101906100f291906104f3565b6102a5565b005b6101016103cf565b60405161010e9190610450565b60405180910390f35b60008054906101000a900473ffffffffffffffffffffffffffffffffffffffff1673ffffffffffffffffffffffffffffffffffffffff163373ffffffffffffffffffffffffffffffffffffffff1614806101be5750600160009054906101000a900473ffffffffffffffffffffffffffffffffffffffff1673ffffffffffffffffffffffffffffffffffffffff163373ffffffffffffffffffffffffffffffffffffffff16145b6101fd576040517f08c379a00000000000000000000000000000000000000000000000000000000081526004016101f4906105a3565b60405180910390fd5b806002819055503373ffffffffffffffffffffffffffffffffffffffff167f77d9004587bb5fc3ad16da094ff026e703fbd97a9d869dc949ed35efc92912838260405161024a9190610450565b60405180910390a250565b60025481565b60008054906101000a900473ffffffffffffffffffffffffffffffffffffffff1681565b600160009054906101000a900473ffffffffffffffffffffffffffffffffffffffff1681565b60008054906101000a900473ffffffffffffffffffffffffffffffffffffffff1673ffffffffffffffffffffffffffffffffffffffff163373ffffffffffffffffffffffffffffffffffffffff16148061034c5750600160009054906101000a900473ffffffffffffffffffffffffffffffffffffffff1673ffffffffffffffffffffffffffffffffffffffff163373ffffffffffffffffffffffffffffffffffffffff16145b61038b576040517f08c379a0000000000000000000000000000000000000000000000000000000008152600401610382906105a3565b60405180910390fd5b80600160006101000a81548173ffffffffffffffffffffffffffffffffffffffff021916908373ffffffffffffffffffffffffffffffffffffffff16021790555050565b6000600254905090565b600080fd5b6000819050919050565b6103f1816103de565b81146103fc57600080fd5b50565b60008135905061040e816103e8565b92915050565b60006020828403121561042a576104296103d9565b5b6000610438848285016103ff565b91505092915050565b61044a816103de565b82525050565b60006020820190506104656000830184610441565b92915050565b600073ffffffffffffffffffffffffffffffffffffffff82169050919050565b60006104968261046b565b9050919050565b6104a68161048b565b82525050565b60006020820190506104c1600083018461049d565b92915050565b6104d08161048b565b81146104db57600080fd5b50565b6000813590506104ed816104c7565b92915050565b600060208284031215610509576105086103d9565b5b6000610517848285016104de565b91505092915050565b600082825260208201905092915050565b7f416363657373207265737472696374656420746f206f776e6572206f7220576f60008201527f726c64204944206f776e65720000000000000000000000000000000000000000602082015250565b600061058d602c83610520565b915061059882610531565b604082019050919050565b600060208201905081810360008301526105bc81610580565b905091905056fea2646970667358221220b680641304e106393acbe8c2e52e3220c94bc10dd7b0879c4375083cf43cf5d964736f6c634300081b00336080604052600160055534801561001557600080fd5b50604051610d75380380610d7583398181016040528101906100379190610183565b836000806101000a81548173ffffffffffffffffffffffffffffffffffffffff021916908373ffffffffffffffffffffffffffffffffffffffff16021790555082600160006101000a81548173ffffffffffffffffffffffffffffffffffffffff021916908373ffffffffffffffffffffffffffffffffffffffff16021790555081600281905550806004819055506000600660006101000a81548160ff021916908315150217905550505050506101ea565b600080fd5b600073ffffffffffffffffffffffffffffffffffffffff82169050919050565b600061011a826100ef565b9050919050565b61012a8161010f565b811461013557600080fd5b50565b60008151905061014781610121565b92915050565b6000819050919050565b6101608161014d565b811461016b57600080fd5b50565b60008151905061017d81610157565b92915050565b6000806000806080858703121561019d5761019c6100ea565b5b60006101ab87828801610138565b94505060206101bc87828801610138565b93505060406101cd8782880161016e565b92505060606101de8782880161016e565b91505092959194509250565b610b7c806101f96000396000f3fe608060405234801561001057600080fd5b506004361061009e5760003560e01c80639e42ff90116100665780639e42ff9014610125578063de29278914610143578063eb159e9e14610161578063ec2c0e631461017f578063f348e8b21461019d5761009e565b80633cc6a838146100a357806373d4a13a146100c15780638192a437146100df5780638da5cb5b146100fd5780638dbcedf01461011b575b600080fd5b6100ab6101bb565b6040516100b89190610631565b60405180910390f35b6100c96101c1565b6040516100d69190610631565b60405180910390f35b6100e76101c7565b6040516100f49190610631565b60405180910390f35b6101056101cd565b604051610112919061068d565b60405180910390f35b6101236101f1565b005b61012d610576565b60405161013a9190610707565b60405180910390f35b61014b61059c565b6040516101589190610631565b60405180910390f35b6101696105a6565b604051610176919061073d565b60405180910390f35b6101876105b9565b6040516101949190610771565b60405180910390f35b6101a5610612565b6040516101b29190610771565b60405180910390f35b60045481565b60055481565b60025481565b60008054906101000a900473ffffffffffffffffffffffffffffffffffffffff1681565b60008054906101000a900473ffffffffffffffffffffffffffffffffffffffff1673ffffffffffffffffffffffffffffffffffffffff163373ffffffffffffffffffffffffffffffffffffffff161461027f576040517f08c379a0000000000000000000000000000000000000000000000000000000008152600401610276906107e9565b60405180910390fd5b6002544210156102c4576040517f08c379a00000000000000000000000000000000000000000000000000000000081526004016102bb90610855565b60405180910390fd5b600660009054906101000a900460ff1615610314576040517f08c379a000000000000000000000000000000000000000000000000000000000815260040161030b906108c1565b60405180910390fd5b6000600160009054906101000a900473ffffffffffffffffffffffffffffffffffffffff1673ffffffffffffffffffffffffffffffffffffffff1663feaf968c6040518163ffffffff1660e01b815260040160a060405180830381865afa158015610383573d6000803e3d6000fd5b505050506040513d601f19601f820116820180604052508101906103a79190610980565b505050509050600081905060007fffffffffffffffffffffffffffffffffffffffffffffffffffffffffffffffff905060005b60008369ffffffffffffffffffff1611156104f557600160009054906101000a900473ffffffffffffffffffffffffffffffffffffffff1673ffffffffffffffffffffffffffffffffffffffff16639a6fc8f5846040518263ffffffff1660e01b815260040161044a9190610a0a565b60a060405180830381865afa92505050801561048457506040513d601f19601f820116820180604052508101906104819190610980565b60015b156104f557600060025483116104a757826002546104a29190610a54565b6104b6565b600254836104b59190610a54565b5b9050878110156104c7578097508496505b6002548310156104dc575050505050506104f5565b50505050505082806104ed90610a88565b9350506103da565b806003819055506001600660006101000a81548160ff0219169083151502179055506004546003541361052957600261052c565b60015b60ff166005819055507f29124e4d619e88b80a588e8e051b7f81b395668288c3f374006d77b98b71b5b660035442604051610568929190610ab1565b60405180910390a150505050565b600160009054906101000a900473ffffffffffffffffffffffffffffffffffffffff1681565b6000600554905090565b600660009054906101000a900460ff1681565b6000600660009054906101000a900460ff1661060a576040517f08c379a000000000000000000000000000000000000000000000000000000000815260040161060190610b26565b60405180910390fd5b600354905090565b60035481565b6000819050919050565b61062b81610618565b82525050565b60006020820190506106466000830184610622565b92915050565b600073ffffffffffffffffffffffffffffffffffffffff82169050919050565b60006106778261064c565b9050919050565b6106878161066c565b82525050565b60006020820190506106a2600083018461067e565b92915050565b6000819050919050565b60006106cd6106c86106c38461064c565b6106a8565b61064c565b9050919050565b60006106df826106b2565b9050919050565b60006106f1826106d4565b9050919050565b610701816106e6565b82525050565b600060208201905061071c60008301846106f8565b92915050565b60008115159050919050565b61073781610722565b82525050565b6000602082019050610752600083018461072e565b92915050565b6000819050919050565b61076b81610758565b82525050565b60006020820190506107866000830184610762565b92915050565b600082825260208201905092915050565b7f4e6f7420746865206f776e657200000000000000000000000000000000000000600082015250565b60006107d3600d8361078c565b91506107de8261079d565b602082019050919050565b60006020820190508181036000830152610802816107c6565b9050919050565b7f536574746c656d656e742074696d65206e6f7420726561636865640000000000600082015250565b600061083f601b8361078c565b915061084a82610809565b602082019050919050565b6000602082019050818103600083015261086e81610832565b9050919050565b7f507269636520616c726561647920736574000000000000000000000000000000600082015250565b60006108ab60118361078c565b91506108b682610875565b602082019050919050565b600060208201905081810360008301526108da8161089e565b9050919050565b600080fd5b600069ffffffffffffffffffff82169050919050565b610905816108e6565b811461091057600080fd5b50565b600081519050610922816108fc565b92915050565b61093181610758565b811461093c57600080fd5b50565b60008151905061094e81610928565b92915050565b61095d81610618565b811461096857600080fd5b50565b60008151905061097a81610954565b92915050565b600080600080600060a0868803121561099c5761099b6108e1565b5b60006109aa88828901610913565b95505060206109bb8882890161093f565b94505060406109cc8882890161096b565b93505060606109dd8882890161096b565b92505060806109ee88828901610913565b9150509295509295909350565b610a04816108e6565b82525050565b6000602082019050610a1f60008301846109fb565b92915050565b7f4e487b7100000000000000000000000000000000000000000000000000000000600052601160045260246000fd5b6000610a5f82610618565b9150610a6a83610618565b9250828203905081811115610a8257610a81610a25565b5b92915050565b6000610a93826108e6565b915060008203610aa657610aa5610a25565b5b600182039050919050565b6000604082019050610ac66000830185610762565b610ad36020830184610622565b9392505050565b7f536574746c656d656e74207072696365206e6f74207365742079657400000000600082015250565b6000610b10601c8361078c565b9150610b1b82610ada565b602082019050919050565b60006020820190508181036000830152610b3f81610b03565b905091905056fea2646970667358221220b620ced6adc76ced09b6a9db32740c276334f1a1096c6a0151766a84324863f164736f6c634300081b0033a26469706673582212203621af24b58d072992f0c865bd26dcdb1a14f766840fddba3f96acc31badf5b664736f6c634300081b0033",
  "linkReferences": {},
  "deployedLinkReferences": {}
}