{
  "_format": "hh-sol-artifact-1",
  "contractName": "OWorld",
  "sourceName": "contracts/Oracle/OWorld.sol",
  "abi": [
    {
      "inputs": [
        {
          "internalType": "address",
          "name": "_owner",
          "type": "address"
        },
        {
          "internalType": "address",
          "name": "_worldIdOwner",
          "type": "address"
        }
      ],
      "stateMutability": "nonpayable",
      "type": "constructor"
    },
    {
      "anonymous": false,
      "inputs": [
        {
          "indexed": false,
          "internalType": "uint256",
          "name": "newData",
          "type": "uint256"
        },
        {
          "indexed": true,
          "internalType": "address",
          "name": "updater",
          "type": "address"
        }
      ],
      "name": "DataUpdated",
      "type": "event"
    },
    {
      "inputs": [
        {
          "internalType": "address",
          "name": "newWorldIdOwner",
          "type": "address"
        }
      ],
      "name": "changeWorldIdOwner",
      "outputs": [],
      "stateMutability": "nonpayable",
      "type": "function"
    },
    {
      "inputs": [],
      "name": "data",
      "outputs": [
        {
          "internalType": "uint256",
          "name": "",
          "type": "uint256"
        }
      ],
      "stateMutability": "view",
      "type": "function"
    },
    {
      "inputs": [],
      "name": "getResult",
      "outputs": [
        {
          "internalType": "uint256",
          "name": "",
          "type": "uint256"
        }
      ],
      "stateMutability": "view",
      "type": "function"
    },
    {
      "inputs": [],
      "name": "owner",
      "outputs": [
        {
          "internalType": "address",
          "name": "",
          "type": "address"
        }
      ],
      "stateMutability": "view",
      "type": "function"
    },
    {
      "inputs": [
        {
          "internalType": "uint256",
          "name": "_data",
          "type": "uint256"
        }
      ],
      "name": "setData",
      "outputs": [],
      "stateMutability": "nonpayable",
      "type": "function"
    },
    {
      "inputs": [],
      "name": "worldIdOwner",
      "outputs": [
        {
          "internalType": "address",
          "name": "",
          "type": "address"
        }
      ],
      "stateMutability": "view",
      "type": "function"
    }
  ],
  "bytecode": "0x6080604052600160025534801561001557600080fd5b5060405161076a38038061076a83398181016040528101906100379190610122565b816000806101000a81548173ffffffffffffffffffffffffffffffffffffffff021916908373ffffffffffffffffffffffffffffffffffffffff16021790555080600160006101000a81548173ffffffffffffffffffffffffffffffffffffffff021916908373ffffffffffffffffffffffffffffffffffffffff1602179055505050610162565b600080fd5b600073ffffffffffffffffffffffffffffffffffffffff82169050919050565b60006100ef826100c4565b9050919050565b6100ff816100e4565b811461010a57600080fd5b50565b60008151905061011c816100f6565b92915050565b60008060408385031215610139576101386100bf565b5b60006101478582860161010d565b92505060206101588582860161010d565b9150509250929050565b6105f9806101716000396000f3fe608060405234801561001057600080fd5b50600436106100625760003560e01c80635b4b73a91461006757806373d4a13a146100835780638da5cb5b146100a1578063a39aacdf146100bf578063d1efdbac146100dd578063de292789146100f9575b600080fd5b610081600480360381019061007c9190610414565b610117565b005b61008b610255565b6040516100989190610450565b60405180910390f35b6100a961025b565b6040516100b691906104ac565b60405180910390f35b6100c761027f565b6040516100d491906104ac565b60405180910390f35b6100f760048036038101906100f291906104f3565b6102a5565b005b6101016103cf565b60405161010e9190610450565b60405180910390f35b60008054906101000a900473ffffffffffffffffffffffffffffffffffffffff1673ffffffffffffffffffffffffffffffffffffffff163373ffffffffffffffffffffffffffffffffffffffff1614806101be5750600160009054906101000a900473ffffffffffffffffffffffffffffffffffffffff1673ffffffffffffffffffffffffffffffffffffffff163373ffffffffffffffffffffffffffffffffffffffff16145b6101fd576040517f08c379a00000000000000000000000000000000000000000000000000000000081526004016101f4906105a3565b60405180910390fd5b806002819055503373ffffffffffffffffffffffffffffffffffffffff167f77d9004587bb5fc3ad16da094ff026e703fbd97a9d869dc949ed35efc92912838260405161024a9190610450565b60405180910390a250565b60025481565b60008054906101000a900473ffffffffffffffffffffffffffffffffffffffff1681565b600160009054906101000a900473ffffffffffffffffffffffffffffffffffffffff1681565b60008054906101000a900473ffffffffffffffffffffffffffffffffffffffff1673ffffffffffffffffffffffffffffffffffffffff163373ffffffffffffffffffffffffffffffffffffffff16148061034c5750600160009054906101000a900473ffffffffffffffffffffffffffffffffffffffff1673ffffffffffffffffffffffffffffffffffffffff163373ffffffffffffffffffffffffffffffffffffffff16145b61038b576040517f08c379a0000000000000000000000000000000000000000000000000000000008152600401610382906105a3565b60405180910390fd5b80600160006101000a81548173ffffffffffffffffffffffffffffffffffffffff021916908373ffffffffffffffffffffffffffffffffffffffff16021790555050565b6000600254905090565b600080fd5b6000819050919050565b6103f1816103de565b81146103fc57600080fd5b50565b60008135905061040e816103e8565b92915050565b60006020828403121561042a576104296103d9565b5b6000610438848285016103ff565b91505092915050565b61044a816103de565b82525050565b60006020820190506104656000830184610441565b92915050565b600073ffffffffffffffffffffffffffffffffffffffff82169050919050565b60006104968261046b565b9050919050565b6104a68161048b565b82525050565b60006020820190506104c1600083018461049d565b92915050565b6104d08161048b565b81146104db57600080fd5b50565b6000813590506104ed816104c7565b92915050565b600060208284031215610509576105086103d9565b5b6000610517848285016104de565b91505092915050565b600082825260208201905092915050565b7f416363657373207265737472696374656420746f206f776e6572206f7220576f60008201527f726c64204944206f776e65720000000000000000000000000000000000000000602082015250565b600061058d602c83610520565b915061059882610531565b604082019050919050565b600060208201905081810360008301526105bc81610580565b905091905056fea2646970667358221220b680641304e106393acbe8c2e52e3220c94bc10dd7b0879c4375083cf43cf5d964736f6c634300081b0033",
  "linkReferences": {},
  "deployedLinkReferences": {}
}