{
	"_format": "hh-sol-artifact-1",
	"contractName": "OptionMarket",
	"sourceName": "contracts/OptionMarket.sol",
	"abi": [
		{
			"inputs": [
				{
					"internalType": "address",
					"name": "target",
					"type": "address"
				}
			],
			"name": "approveRedeem",
			"outputs": [],
			"stateMutability": "nonpayable",
			"type": "function"
		},
		{
			"inputs": [
				{
					"internalType": "address",
					"name": "target",
					"type": "address"
				},
				{
					"internalType": "uint256",
					"name": "opt",
					"type": "uint256"
				},
				{
					"internalType": "uint256",
					"name": "dx",
					"type": "uint256"
				}
			],
			"name": "buyOption",
			"outputs": [
				{
					"internalType": "uint256",
					"name": "acquiredOptions",
					"type": "uint256"
				},
				{
					"internalType": "uint256",
					"name": "dy",
					"type": "uint256"
				}
			],
			"stateMutability": "nonpayable",
			"type": "function"
		},
		{
			"inputs": [
				{
					"internalType": "address",
					"name": "target",
					"type": "address"
				},
				{
					"internalType": "uint256",
					"name": "opt",
					"type": "uint256"
				},
				{
					"internalType": "uint256",
					"name": "dx",
					"type": "uint256"
				},
				{
					"internalType": "bool",
					"name": "isBuy",
					"type": "bool"
				}
			],
			"name": "calculateOptionChange",
			"outputs": [
				{
					"internalType": "uint256",
					"name": "dy",
					"type": "uint256"
				},
				{
					"internalType": "uint256",
					"name": "newCollateralBalance",
					"type": "uint256"
				},
				{
					"internalType": "uint256",
					"name": "newOptionBalance",
					"type": "uint256"
				}
			],
			"stateMutability": "view",
			"type": "function"
		},
		{
			"inputs": [
				{
					"internalType": "address",
					"name": "",
					"type": "address"
				}
			],
			"name": "isTransactionActive",
			"outputs": [
				{
					"internalType": "bool",
					"name": "",
					"type": "bool"
				}
			],
			"stateMutability": "view",
			"type": "function"
		},
		{
			"inputs": [
				{
					"internalType": "address",
					"name": "operator",
					"type": "address"
				},
				{
					"internalType": "address",
					"name": "from",
					"type": "address"
				},
				{
					"internalType": "uint256",
					"name": "id",
					"type": "uint256"
				},
				{
					"internalType": "uint256",
					"name": "value",
					"type": "uint256"
				},
				{
					"internalType": "bytes",
					"name": "data",
					"type": "bytes"
				}
			],
			"name": "onERC1155Received",
			"outputs": [
				{
					"internalType": "bytes4",
					"name": "",
					"type": "bytes4"
				}
			],
			"stateMutability": "nonpayable",
			"type": "function"
		},
		{
			"inputs": [
				{
					"internalType": "address",
					"name": "target",
					"type": "address"
				}
			],
			"name": "redeemCollateral",
			"outputs": [],
			"stateMutability": "nonpayable",
			"type": "function"
		},
		{
			"inputs": [
				{
					"internalType": "address",
					"name": "",
					"type": "address"
				},
				{
					"internalType": "address",
					"name": "",
					"type": "address"
				}
			],
			"name": "safeRedeem",
			"outputs": [
				{
					"internalType": "uint256",
					"name": "",
					"type": "uint256"
				}
			],
			"stateMutability": "view",
			"type": "function"
		},
		{
			"inputs": [
				{
					"internalType": "address",
					"name": "target",
					"type": "address"
				},
				{
					"internalType": "uint256",
					"name": "opt",
					"type": "uint256"
				},
				{
					"internalType": "uint256",
					"name": "dx",
					"type": "uint256"
				}
			],
			"name": "sellOption",
			"outputs": [
				{
					"internalType": "uint256",
					"name": "dy",
					"type": "uint256"
				}
			],
			"stateMutability": "nonpayable",
			"type": "function"
		}
	],
	"bytecode": "0x6080604052348015600f57600080fd5b506127b28061001f6000396000f3fe608060405234801561001057600080fd5b50600436106100885760003560e01c8063d9f8a0071161005b578063d9f8a0071461014f578063e92efff614610180578063f23a6e611461019c578063f46ea4bd146101cc57610088565b806306b493811461008d57806312b8ef40146100bd57806319ff5050146100ed578063c032239a1461011f575b600080fd5b6100a760048036038101906100a29190611935565b6101e8565b6040516100b4919061197d565b60405180910390f35b6100d760048036038101906100d291906119ce565b610208565b6040516100e49190611a30565b60405180910390f35b61010760048036038101906101029190611a77565b6105a4565b60405161011693929190611ade565b60405180910390f35b61013960048036038101906101349190611b15565b6108b8565b6040516101469190611a30565b60405180910390f35b610169600480360381019061016491906119ce565b6108dd565b604051610177929190611b55565b60405180910390f35b61019a60048036038101906101959190611935565b610ecc565b005b6101b660048036038101906101b19190611be3565b611254565b6040516101c39190611cb8565b60405180910390f35b6101e660048036038101906101e19190611935565b61126a565b005b60006020528060005260406000206000915054906101000a900460ff1681565b60008015156000803373ffffffffffffffffffffffffffffffffffffffff1673ffffffffffffffffffffffffffffffffffffffff16815260200190815260200160002060009054906101000a900460ff1615151461029b576040517f08c379a000000000000000000000000000000000000000000000000000000000815260040161029290611d30565b60405180910390fd5b60008490506000806000808473ffffffffffffffffffffffffffffffffffffffff16632d10fa286040518163ffffffff1660e01b8152600401600060405180830381865afa1580156102f1573d6000803e3d6000fd5b505050506040513d6000823e3d601f19601f8201168201806040525081019061031a9190611fcc565b98509850985050505050945050600115158115151461036e576040517f08c379a00000000000000000000000000000000000000000000000000000000081526004016103659061211a565b60405180910390fd5b815188106103b1576040517f08c379a00000000000000000000000000000000000000000000000000000000081526004016103a890612186565b60405180910390fd5b600087116103f4576040517f08c379a00000000000000000000000000000000000000000000000000000000081526004016103eb90612218565b60405180910390fd5b428310156104145761040684896114bf565b60009550505050505061059d565b60008573ffffffffffffffffffffffffffffffffffffffff16630fb0d9eb6040518163ffffffff1660e01b8152600401602060405180830381865afa158015610461573d6000803e3d6000fd5b505050506040513d601f19601f820116820180604052508101906104859190612238565b905060008673ffffffffffffffffffffffffffffffffffffffff16635b5f45638b6040518263ffffffff1660e01b81526004016104c29190611a30565b602060405180830381865afa1580156104df573d6000803e3d6000fd5b505050506040513d601f19601f820116820180604052508101906105039190612238565b9050600081836105139190612294565b9050818a1115610558576040517f08c379a000000000000000000000000000000000000000000000000000000000815260040161054f90612322565b60405180910390fd5b60008a836105669190612342565b9050600061057483836115d0565b905080856105829190612376565b9a506105928e8e8d8f8587611629565b505050505050505050505b9392505050565b60008060008087905060008173ffffffffffffffffffffffffffffffffffffffff16632d10fa286040518163ffffffff1660e01b8152600401600060405180830381865afa1580156105fa573d6000803e3d6000fd5b505050506040513d6000823e3d601f19601f820116820180604052508101906106239190611fcc565b5097505050505050505080518810610670576040517f08c379a000000000000000000000000000000000000000000000000000000000815260040161066790612186565b60405180910390fd5b600087116106b3576040517f08c379a00000000000000000000000000000000000000000000000000000000081526004016106aa90612218565b60405180910390fd5b60008273ffffffffffffffffffffffffffffffffffffffff16630fb0d9eb6040518163ffffffff1660e01b8152600401602060405180830381865afa158015610700573d6000803e3d6000fd5b505050506040513d601f19601f820116820180604052508101906107249190612238565b905060008373ffffffffffffffffffffffffffffffffffffffff16635b5f45638b6040518263ffffffff1660e01b81526004016107619190611a30565b602060405180830381865afa15801561077e573d6000803e3d6000fd5b505050506040513d601f19601f820116820180604052508101906107a29190612238565b9050600081836107b29190612294565b90506000808a156107ec578b856107c99190612342565b915081836107d791906123d9565b905080846107e59190612376565b995061089e565b838c111561082f576040517f08c379a000000000000000000000000000000000000000000000000000000000815260040161082690612322565b60405180910390fd5b8b8461083b9190612342565b90506000818461084b91906123d9565b90506000828561085b919061240a565b905060008382600261086d9190612294565b10156108795782610887565b6001836108869190612342565b5b905080945084886108989190612376565b9c505050505b898282995099509950505050505050509450945094915050565b6001602052816000526040600020602052806000526040600020600091509150505481565b600080600015156000803373ffffffffffffffffffffffffffffffffffffffff1673ffffffffffffffffffffffffffffffffffffffff16815260200190815260200160002060009054906101000a900460ff16151514610972576040517f08c379a000000000000000000000000000000000000000000000000000000000815260040161096990611d30565b60405180910390fd5b60008590506000808273ffffffffffffffffffffffffffffffffffffffff16632d10fa286040518163ffffffff1660e01b8152600401600060405180830381865afa1580156109c5573d6000803e3d6000fd5b505050506040513d6000823e3d601f19601f820116820180604052508101906109ee9190611fcc565b98509850505050505050506001151581151514610a40576040517f08c379a0000000000000000000000000000000000000000000000000000000008152600401610a379061211a565b60405180910390fd5b81518710610a83576040517f08c379a0000000000000000000000000000000000000000000000000000000008152600401610a7a90612186565b60405180910390fd5b60008611610ac6576040517f08c379a0000000000000000000000000000000000000000000000000000000008152600401610abd90612218565b60405180910390fd5b60008373ffffffffffffffffffffffffffffffffffffffff16630fb0d9eb6040518163ffffffff1660e01b8152600401602060405180830381865afa158015610b13573d6000803e3d6000fd5b505050506040513d601f19601f82011682018060405250810190610b379190612238565b905060008473ffffffffffffffffffffffffffffffffffffffff16635b5f45638a6040518263ffffffff1660e01b8152600401610b749190611a30565b602060405180830381865afa158015610b91573d6000803e3d6000fd5b505050506040513d601f19601f82011682018060405250810190610bb59190612238565b905060008183610bc59190612294565b9050888673ffffffffffffffffffffffffffffffffffffffff1663eae99684336040518263ffffffff1660e01b8152600401610c01919061244a565b602060405180830381865afa158015610c1e573d6000803e3d6000fd5b505050506040513d601f19601f82011682018060405250810190610c429190612238565b14610c82576040517f08c379a0000000000000000000000000000000000000000000000000000000008152600401610c79906124b1565b60405180910390fd5b60008984610c909190612342565b905060008183610ca091906123d9565b90508084610cae9190612376565b98508773ffffffffffffffffffffffffffffffffffffffff1663d320353b836040518263ffffffff1660e01b8152600401610ce99190611a30565b600060405180830381600087803b158015610d0357600080fd5b505af1158015610d17573d6000803e3d6000fd5b505050508773ffffffffffffffffffffffffffffffffffffffff1663be914d8f8d836040518363ffffffff1660e01b8152600401610d56929190611b55565b600060405180830381600087803b158015610d7057600080fd5b505af1158015610d84573d6000803e3d6000fd5b505050508773ffffffffffffffffffffffffffffffffffffffff1663dfbd48bb338e8c6040518463ffffffff1660e01b8152600401610dc5939291906124d1565b600060405180830381600087803b158015610ddf57600080fd5b505af1158015610df3573d6000803e3d6000fd5b505050508773ffffffffffffffffffffffffffffffffffffffff16635b51950e3360006040518363ffffffff1660e01b8152600401610e3392919061254d565b600060405180830381600087803b158015610e4d57600080fd5b505af1158015610e61573d6000803e3d6000fd5b5050505060008060003373ffffffffffffffffffffffffffffffffffffffff1673ffffffffffffffffffffffffffffffffffffffff16815260200190815260200160002060006101000a81548160ff0219169083151502179055505050505050505050935093915050565b600115156000803373ffffffffffffffffffffffffffffffffffffffff1673ffffffffffffffffffffffffffffffffffffffff16815260200190815260200160002060009054906101000a900460ff16151514610f5e576040517f08c379a0000000000000000000000000000000000000000000000000000000008152600401610f55906125c2565b60405180910390fd5b6000600160008373ffffffffffffffffffffffffffffffffffffffff1673ffffffffffffffffffffffffffffffffffffffff16815260200190815260200160002060003373ffffffffffffffffffffffffffffffffffffffff1673ffffffffffffffffffffffffffffffffffffffff168152602001908152602001600020541161101d576040517f08c379a00000000000000000000000000000000000000000000000000000000081526004016110149061262e565b60405180910390fd5b60008190508073ffffffffffffffffffffffffffffffffffffffff16634838e687600160008573ffffffffffffffffffffffffffffffffffffffff1673ffffffffffffffffffffffffffffffffffffffff16815260200190815260200160002060003373ffffffffffffffffffffffffffffffffffffffff1673ffffffffffffffffffffffffffffffffffffffff168152602001908152602001600020546040518263ffffffff1660e01b81526004016110d79190611a30565b600060405180830381600087803b1580156110f157600080fd5b505af1158015611105573d6000803e3d6000fd5b505050506000600160008473ffffffffffffffffffffffffffffffffffffffff1673ffffffffffffffffffffffffffffffffffffffff16815260200190815260200160002060003373ffffffffffffffffffffffffffffffffffffffff1673ffffffffffffffffffffffffffffffffffffffff168152602001908152602001600020819055508073ffffffffffffffffffffffffffffffffffffffff16634138c4f53360006040518363ffffffff1660e01b81526004016111c792919061254d565b600060405180830381600087803b1580156111e157600080fd5b505af11580156111f5573d6000803e3d6000fd5b5050505060008060003373ffffffffffffffffffffffffffffffffffffffff1673ffffffffffffffffffffffffffffffffffffffff16815260200190815260200160002060006101000a81548160ff0219169083151502179055505050565b600063f23a6e6160e01b90509695505050505050565b600115156000803373ffffffffffffffffffffffffffffffffffffffff1673ffffffffffffffffffffffffffffffffffffffff16815260200190815260200160002060009054906101000a900460ff161515146112fc576040517f08c379a00000000000000000000000000000000000000000000000000000000081526004016112f3906125c2565b60405180910390fd5b600081905060008173ffffffffffffffffffffffffffffffffffffffff16632d10fa286040518163ffffffff1660e01b8152600401600060405180830381865afa15801561134e573d6000803e3d6000fd5b505050506040513d6000823e3d601f19601f820116820180604052508101906113779190611fcc565b505050505050925050508073ffffffffffffffffffffffffffffffffffffffff1663095ea7b330600160008773ffffffffffffffffffffffffffffffffffffffff1673ffffffffffffffffffffffffffffffffffffffff16815260200190815260200160002060003373ffffffffffffffffffffffffffffffffffffffff1673ffffffffffffffffffffffffffffffffffffffff168152602001908152602001600020546040518363ffffffff1660e01b815260040161143892919061264e565b6020604051808303816000875af1158015611457573d6000803e3d6000fd5b505050506040513d601f19601f8201168201806040525081019061147b9190612677565b6114ba576040517f08c379a00000000000000000000000000000000000000000000000000000000081526004016114b1906126f0565b60405180910390fd5b505050565b6000829050818173ffffffffffffffffffffffffffffffffffffffff16637e7e4b476040518163ffffffff1660e01b8152600401602060405180830381865afa158015611510573d6000803e3d6000fd5b505050506040513d601f19601f820116820180604052508101906115349190612238565b14611574576040517f08c379a000000000000000000000000000000000000000000000000000000000815260040161156b9061275c565b60405180910390fd5b60016000803373ffffffffffffffffffffffffffffffffffffffff1673ffffffffffffffffffffffffffffffffffffffff16815260200190815260200160002060006101000a81548160ff021916908315150217905550505050565b60008082846115df91906123d9565b9050600083856115ef919061240a565b90506000848260026116019190612294565b101561160d578261161b565b60018361161a9190612342565b5b905080935050505092915050565b60008690508073ffffffffffffffffffffffffffffffffffffffff1663d320353b846040518263ffffffff1660e01b81526004016116679190611a30565b600060405180830381600087803b15801561168157600080fd5b505af1158015611695573d6000803e3d6000fd5b505050508073ffffffffffffffffffffffffffffffffffffffff1663be914d8f87846040518363ffffffff1660e01b81526004016116d4929190611b55565b600060405180830381600087803b1580156116ee57600080fd5b505af1158015611702573d6000803e3d6000fd5b505050508073ffffffffffffffffffffffffffffffffffffffff1663dfbd48bb3388876040518463ffffffff1660e01b8152600401611743939291906124d1565b600060405180830381600087803b15801561175d57600080fd5b505af1158015611771573d6000803e3d6000fd5b505050508073ffffffffffffffffffffffffffffffffffffffff16634138c4f533876040518363ffffffff1660e01b81526004016117b092919061264e565b600060405180830381600087803b1580156117ca57600080fd5b505af11580156117de573d6000803e3d6000fd5b5050505084600160008973ffffffffffffffffffffffffffffffffffffffff1673ffffffffffffffffffffffffffffffffffffffff16815260200190815260200160002060003373ffffffffffffffffffffffffffffffffffffffff1673ffffffffffffffffffffffffffffffffffffffff1681526020019081526020016000208190555060016000803373ffffffffffffffffffffffffffffffffffffffff1673ffffffffffffffffffffffffffffffffffffffff16815260200190815260200160002060006101000a81548160ff02191690831515021790555050505050505050565b6000604051905090565b600080fd5b600080fd5b600073ffffffffffffffffffffffffffffffffffffffff82169050919050565b6000611902826118d7565b9050919050565b611912816118f7565b811461191d57600080fd5b50565b60008135905061192f81611909565b92915050565b60006020828403121561194b5761194a6118cd565b5b600061195984828501611920565b91505092915050565b60008115159050919050565b61197781611962565b82525050565b6000602082019050611992600083018461196e565b92915050565b6000819050919050565b6119ab81611998565b81146119b657600080fd5b50565b6000813590506119c8816119a2565b92915050565b6000806000606084860312156119e7576119e66118cd565b5b60006119f586828701611920565b9350506020611a06868287016119b9565b9250506040611a17868287016119b9565b9150509250925092565b611a2a81611998565b82525050565b6000602082019050611a456000830184611a21565b92915050565b611a5481611962565b8114611a5f57600080fd5b50565b600081359050611a7181611a4b565b92915050565b60008060008060808587031215611a9157611a906118cd565b5b6000611a9f87828801611920565b9450506020611ab0878288016119b9565b9350506040611ac1878288016119b9565b9250506060611ad287828801611a62565b91505092959194509250565b6000606082019050611af36000830186611a21565b611b006020830185611a21565b611b0d6040830184611a21565b949350505050565b60008060408385031215611b2c57611b2b6118cd565b5b6000611b3a85828601611920565b9250506020611b4b85828601611920565b9150509250929050565b6000604082019050611b6a6000830185611a21565b611b776020830184611a21565b9392505050565b600080fd5b600080fd5b600080fd5b60008083601f840112611ba357611ba2611b7e565b5b8235905067ffffffffffffffff811115611bc057611bbf611b83565b5b602083019150836001820283011115611bdc57611bdb611b88565b5b9250929050565b60008060008060008060a08789031215611c0057611bff6118cd565b5b6000611c0e89828a01611920565b9650506020611c1f89828a01611920565b9550506040611c3089828a016119b9565b9450506060611c4189828a016119b9565b935050608087013567ffffffffffffffff811115611c6257611c616118d2565b5b611c6e89828a01611b8d565b92509250509295509295509295565b60007fffffffff0000000000000000000000000000000000000000000000000000000082169050919050565b611cb281611c7d565b82525050565b6000602082019050611ccd6000830184611ca9565b92915050565b600082825260208201905092915050565b7f4e6f77207472616e73616374696f6e206163746976652e000000000000000000600082015250565b6000611d1a601783611cd3565b9150611d2582611ce4565b602082019050919050565b60006020820190508181036000830152611d4981611d0d565b9050919050565b600080fd5b6000601f19601f8301169050919050565b7f4e487b7100000000000000000000000000000000000000000000000000000000600052604160045260246000fd5b611d9e82611d55565b810181811067ffffffffffffffff82111715611dbd57611dbc611d66565b5b80604052505050565b6000611dd06118c3565b9050611ddc8282611d95565b919050565b600067ffffffffffffffff821115611dfc57611dfb611d66565b5b611e0582611d55565b9050602081019050919050565b60005b83811015611e30578082015181840152602081019050611e15565b60008484015250505050565b6000611e4f611e4a84611de1565b611dc6565b905082815260208101848484011115611e6b57611e6a611d50565b5b611e76848285611e12565b509392505050565b600082601f830112611e9357611e92611b7e565b5b8151611ea3848260208601611e3c565b91505092915050565b600081519050611ebb81611909565b92915050565b600081519050611ed0816119a2565b92915050565b600067ffffffffffffffff821115611ef157611ef0611d66565b5b602082029050602081019050919050565b6000611f15611f1084611ed6565b611dc6565b90508083825260208201905060208402830185811115611f3857611f37611b88565b5b835b81811015611f7f57805167ffffffffffffffff811115611f5d57611f5c611b7e565b5b808601611f6a8982611e7e565b85526020850194505050602081019050611f3a565b5050509392505050565b600082601f830112611f9e57611f9d611b7e565b5b8151611fae848260208601611f02565b91505092915050565b600081519050611fc681611a4b565b92915050565b60008060008060008060008060006101208a8c031215611fef57611fee6118cd565b5b60008a015167ffffffffffffffff81111561200d5761200c6118d2565b5b6120198c828d01611e7e565b995050602061202a8c828d01611eac565b985050604061203b8c828d01611eac565b975050606061204c8c828d01611ec1565b965050608061205d8c828d01611ec1565b95505060a061206e8c828d01611ec1565b94505060c061207f8c828d01611ec1565b93505060e08a015167ffffffffffffffff8111156120a05761209f6118d2565b5b6120ac8c828d01611f89565b9250506101006120be8c828d01611fb7565b9150509295985092959850929598565b7f54686973206d61726b6574206973206e6f74206f70656e2e0000000000000000600082015250565b6000612104601883611cd3565b915061210f826120ce565b602082019050919050565b60006020820190508181036000830152612133816120f7565b9050919050565b7f496e76616c6964206f7074696f6e2073656c6563746564000000000000000000600082015250565b6000612170601783611cd3565b915061217b8261213a565b602082019050919050565b6000602082019050818103600083015261219f81612163565b9050919050565b7f4465706f73697420616d6f756e74206d7573742062652067726561746572207460008201527f68616e207a65726f000000000000000000000000000000000000000000000000602082015250565b6000612202602883611cd3565b915061220d826121a6565b604082019050919050565b60006020820190508181036000830152612231816121f5565b9050919050565b60006020828403121561224e5761224d6118cd565b5b600061225c84828501611ec1565b91505092915050565b7f4e487b7100000000000000000000000000000000000000000000000000000000600052601160045260246000fd5b600061229f82611998565b91506122aa83611998565b92508282026122b881611998565b915082820484148315176122cf576122ce612265565b5b5092915050565b7f496e73756666696369656e74206f7074696f6e7320696e20706f6f6c00000000600082015250565b600061230c601c83611cd3565b9150612317826122d6565b602082019050919050565b6000602082019050818103600083015261233b816122ff565b9050919050565b600061234d82611998565b915061235883611998565b92508282019050808211156123705761236f612265565b5b92915050565b600061238182611998565b915061238c83611998565b92508282039050818111156123a4576123a3612265565b5b92915050565b7f4e487b7100000000000000000000000000000000000000000000000000000000600052601260045260246000fd5b60006123e482611998565b91506123ef83611998565b9250826123ff576123fe6123aa565b5b828204905092915050565b600061241582611998565b915061242083611998565b9250826124305761242f6123aa565b5b828206905092915050565b612444816118f7565b82525050565b600060208201905061245f600083018461243b565b92915050565b7f4465706f73697420616d6f756e7420646f6573206e6f74206d617463682e0000600082015250565b600061249b601e83611cd3565b91506124a682612465565b602082019050919050565b600060208201905081810360008301526124ca8161248e565b9050919050565b60006060820190506124e6600083018661243b565b6124f36020830185611a21565b6125006040830184611a21565b949350505050565b6000819050919050565b6000819050919050565b600061253761253261252d84612508565b612512565b611998565b9050919050565b6125478161251c565b82525050565b6000604082019050612562600083018561243b565b61256f602083018461253e565b9392505050565b7f4e6f77207472616e73616374696f6e206e6f74206163746976652e0000000000600082015250565b60006125ac601b83611cd3565b91506125b782612576565b602082019050919050565b600060208201905081810360008301526125db8161259f565b9050919050565b7f4e6f74206465706f73697465642e000000000000000000000000000000000000600082015250565b6000612618600e83611cd3565b9150612623826125e2565b602082019050919050565b600060208201905081810360008301526126478161260b565b9050919050565b6000604082019050612663600083018561243b565b6126706020830184611a21565b9392505050565b60006020828403121561268d5761268c6118cd565b5b600061269b84828501611fb7565b91505092915050565b7f436f6c6c61746572616c20746f6b656e207472616e73666572206661696c6564600082015250565b60006126da602083611cd3565b91506126e5826126a4565b602082019050919050565b60006020820190508181036000830152612709816126cd565b9050919050565b7f546865207072696365206f662074686973206f7074696f6e20697320302e0000600082015250565b6000612746601e83611cd3565b915061275182612710565b602082019050919050565b6000602082019050818103600083015261277581612739565b905091905056fea264697066735822122047bc1e846918bed03594dd514c82f4f80c79460f8fc5ea97ee8b5f4b9e281d5664736f6c634300081b0033",
	"linkReferences": {},
	"deployedLinkReferences": {}
}