{
	"_format": "hh-sol-artifact-1",
	"contractName": "PMTFactory",
	"sourceName": "contracts/PMTFactory.sol",
	"abi": [
		{
			"anonymous": false,
			"inputs": [
				{
					"indexed": false,
					"internalType": "address",
					"name": "marketAddress",
					"type": "address"
				},
				{
					"indexed": false,
					"internalType": "string",
					"name": "question",
					"type": "string"
				},
				{
					"indexed": false,
					"internalType": "address",
					"name": "oracle",
					"type": "address"
				},
				{
					"indexed": false,
					"internalType": "uint256",
					"name": "fee",
					"type": "uint256"
				},
				{
					"indexed": false,
					"internalType": "uint256",
					"name": "executionDate",
					"type": "uint256"
				}
			],
			"name": "MarketCreated",
			"type": "event"
		},
		{
			"inputs": [
				{
					"internalType": "uint256",
					"name": "",
					"type": "uint256"
				}
			],
			"name": "allMarkets",
			"outputs": [
				{
					"internalType": "address",
					"name": "",
					"type": "address"
				}
			],
			"stateMutability": "view",
			"type": "function"
		},
		{
			"inputs": [
				{
					"internalType": "string",
					"name": "_question",
					"type": "string"
				},
				{
					"internalType": "uint256",
					"name": "_optionCount",
					"type": "uint256"
				},
				{
					"internalType": "address",
					"name": "_collateralToken",
					"type": "address"
				},
				{
					"internalType": "address",
					"name": "_exchange",
					"type": "address"
				},
				{
					"internalType": "address",
					"name": "_oracle",
					"type": "address"
				},
				{
					"internalType": "uint256",
					"name": "_fee",
					"type": "uint256"
				},
				{
					"internalType": "uint256",
					"name": "_startDate",
					"type": "uint256"
				},
				{
					"internalType": "uint256",
					"name": "_executionDate",
					"type": "uint256"
				},
				{
					"internalType": "string[]",
					"name": "_options",
					"type": "string[]"
				}
			],
			"name": "createMarket",
			"outputs": [],
			"stateMutability": "nonpayable",
			"type": "function"
		},
		{
			"inputs": [],
			"name": "getAllMarkets",
			"outputs": [
				{
					"internalType": "address[]",
					"name": "",
					"type": "address[]"
				}
			],
			"stateMutability": "view",
			"type": "function"
		},
		{
			"inputs": [
				{
					"internalType": "address",
					"name": "operator",
					"type": "address"
				},
				{
					"internalType": "address",
					"name": "from",
					"type": "address"
				},
				{
					"internalType": "uint256",
					"name": "id",
					"type": "uint256"
				},
				{
					"internalType": "uint256",
					"name": "value",
					"type": "uint256"
				},
				{
					"internalType": "bytes",
					"name": "data",
					"type": "bytes"
				}
			],
			"name": "onERC1155Received",
			"outputs": [
				{
					"internalType": "bytes4",
					"name": "",
					"type": "bytes4"
				}
			],
			"stateMutability": "nonpayable",
			"type": "function"
		}
	],
	"bytecode": "0x6080604052348015600f57600080fd5b50615e688061001f6000396000f3fe608060405234801561001057600080fd5b506004361061004c5760003560e01c806352d84d1e1461005157806395434d1614610081578063b0772d0b1461009d578063f23a6e61146100bb575b600080fd5b61006b600480360381019061006691906103c7565b6100eb565b6040516100789190610435565b60405180910390f35b61009b600480360381019061009691906106a8565b61012a565b005b6100a56102cc565b6040516100b29190610868565b60405180910390f35b6100d560048036038101906100d091906108e5565b61035a565b6040516100e291906109ba565b60405180910390f35b600081815481106100fb57600080fd5b906000526020600020016000915054906101000a900473ffffffffffffffffffffffffffffffffffffffff1681565b8781511461016d576040517f08c379a000000000000000000000000000000000000000000000000000000000815260040161016490610a32565b60405180910390fd5b60008986888a8888888860405161018390610370565b610194989796959493929190610bdb565b604051809103906000f0801580156101b0573d6000803e3d6000fd5b5090508073ffffffffffffffffffffffffffffffffffffffff1663f2fde38b336040518263ffffffff1660e01b81526004016101ec9190610435565b600060405180830381600087803b15801561020657600080fd5b505af115801561021a573d6000803e3d6000fd5b505050506000819080600181540180825580915050600190039060005260206000200160009091909190916101000a81548173ffffffffffffffffffffffffffffffffffffffff021916908373ffffffffffffffffffffffffffffffffffffffff1602179055507fc536bba7c0e66ebc49ca3b5eb0eb09022162d0762c2094692a56e438a29e7fbd818b8888876040516102b8959493929190610c67565b60405180910390a150505050505050505050565b6060600080548060200260200160405190810160405280929190818152602001828054801561035057602002820191906000526020600020905b8160009054906101000a900473ffffffffffffffffffffffffffffffffffffffff1673ffffffffffffffffffffffffffffffffffffffff1681526020019060010190808311610306575b5050505050905090565b600063f23a6e6160e01b90509695505050505050565b61517180610cc283390190565b6000604051905090565b600080fd5b600080fd5b6000819050919050565b6103a481610391565b81146103af57600080fd5b50565b6000813590506103c18161039b565b92915050565b6000602082840312156103dd576103dc610387565b5b60006103eb848285016103b2565b91505092915050565b600073ffffffffffffffffffffffffffffffffffffffff82169050919050565b600061041f826103f4565b9050919050565b61042f81610414565b82525050565b600060208201905061044a6000830184610426565b92915050565b600080fd5b600080fd5b6000601f19601f8301169050919050565b7f4e487b7100000000000000000000000000000000000000000000000000000000600052604160045260246000fd5b6104a38261045a565b810181811067ffffffffffffffff821117156104c2576104c161046b565b5b80604052505050565b60006104d561037d565b90506104e1828261049a565b919050565b600067ffffffffffffffff8211156105015761050061046b565b5b61050a8261045a565b9050602081019050919050565b82818337600083830152505050565b6000610539610534846104e6565b6104cb565b90508281526020810184848401111561055557610554610455565b5b610560848285610517565b509392505050565b600082601f83011261057d5761057c610450565b5b813561058d848260208601610526565b91505092915050565b61059f81610414565b81146105aa57600080fd5b50565b6000813590506105bc81610596565b92915050565b600067ffffffffffffffff8211156105dd576105dc61046b565b5b602082029050602081019050919050565b600080fd5b6000610606610601846105c2565b6104cb565b90508083825260208201905060208402830185811115610629576106286105ee565b5b835b8181101561067057803567ffffffffffffffff81111561064e5761064d610450565b5b80860161065b8982610568565b8552602085019450505060208101905061062b565b5050509392505050565b600082601f83011261068f5761068e610450565b5b813561069f8482602086016105f3565b91505092915050565b60008060008060008060008060006101208a8c0312156106cb576106ca610387565b5b60008a013567ffffffffffffffff8111156106e9576106e861038c565b5b6106f58c828d01610568565b99505060206107068c828d016103b2565b98505060406107178c828d016105ad565b97505060606107288c828d016105ad565b96505060806107398c828d016105ad565b95505060a061074a8c828d016103b2565b94505060c061075b8c828d016103b2565b93505060e061076c8c828d016103b2565b9250506101008a013567ffffffffffffffff81111561078e5761078d61038c565b5b61079a8c828d0161067a565b9150509295985092959850929598565b600081519050919050565b600082825260208201905092915050565b6000819050602082019050919050565b6107df81610414565b82525050565b60006107f183836107d6565b60208301905092915050565b6000602082019050919050565b6000610815826107aa565b61081f81856107b5565b935061082a836107c6565b8060005b8381101561085b57815161084288826107e5565b975061084d836107fd565b92505060018101905061082e565b5085935050505092915050565b60006020820190508181036000830152610882818461080a565b905092915050565b600080fd5b60008083601f8401126108a5576108a4610450565b5b8235905067ffffffffffffffff8111156108c2576108c161088a565b5b6020830191508360018202830111156108de576108dd6105ee565b5b9250929050565b60008060008060008060a0878903121561090257610901610387565b5b600061091089828a016105ad565b965050602061092189828a016105ad565b955050604061093289828a016103b2565b945050606061094389828a016103b2565b935050608087013567ffffffffffffffff8111156109645761096361038c565b5b61097089828a0161088f565b92509250509295509295509295565b60007fffffffff0000000000000000000000000000000000000000000000000000000082169050919050565b6109b48161097f565b82525050565b60006020820190506109cf60008301846109ab565b92915050565b600082825260208201905092915050565b7f4f7074696f6e7320636f756e74206d69736d6174636800000000000000000000600082015250565b6000610a1c6016836109d5565b9150610a27826109e6565b602082019050919050565b60006020820190508181036000830152610a4b81610a0f565b9050919050565b600081519050919050565b60005b83811015610a7b578082015181840152602081019050610a60565b60008484015250505050565b6000610a9282610a52565b610a9c81856109d5565b9350610aac818560208601610a5d565b610ab58161045a565b840191505092915050565b610ac981610391565b82525050565b600081519050919050565b600082825260208201905092915050565b6000819050602082019050919050565b600082825260208201905092915050565b6000610b1782610a52565b610b218185610afb565b9350610b31818560208601610a5d565b610b3a8161045a565b840191505092915050565b6000610b518383610b0c565b905092915050565b6000602082019050919050565b6000610b7182610acf565b610b7b8185610ada565b935083602082028501610b8d85610aeb565b8060005b85811015610bc95784840389528151610baa8582610b45565b9450610bb583610b59565b925060208a01995050600181019050610b91565b50829750879550505050505092915050565b6000610100820190508181036000830152610bf6818b610a87565b9050610c05602083018a610426565b610c126040830189610426565b610c1f6060830188610426565b610c2c6080830187610ac0565b610c3960a0830186610ac0565b610c4660c0830185610ac0565b81810360e0830152610c588184610b66565b90509998505050505050505050565b600060a082019050610c7c6000830188610426565b8181036020830152610c8e8187610a87565b9050610c9d6040830186610426565b610caa6060830185610ac0565b610cb76080830184610ac0565b969550505050505056fe60806040526000600d60146101000a81548160ff02191690831515021790555034801561002b57600080fd5b50604051615171380380615171833981810160405281019061004d9190610edd565b3360405180606001604052806026815260200161514b602691396100768161024460201b60201c565b50600073ffffffffffffffffffffffffffffffffffffffff168173ffffffffffffffffffffffffffffffffffffffff16036100e95760006040517f1e4fbdf70000000000000000000000000000000000000000000000000000000081526004016100e09190610fda565b60405180910390fd5b6100f88161025760201b60201c565b508760049081610108919061120c565b5086600560006101000a81548173ffffffffffffffffffffffffffffffffffffffff021916908373ffffffffffffffffffffffffffffffffffffffff16021790555084600760006101000a81548173ffffffffffffffffffffffffffffffffffffffff021916908373ffffffffffffffffffffffffffffffffffffffff1602179055508360098190555082600a8190555081600b8190555060005b815181101561023657600c8282815181106101c1576101c06112de565b5b60200260200101519080600181540180825580915050600190039060005260206000200160009091909190915090816101fa919061120c565b506102293360018361020c919061133c565b60006040518060200160405280600081525061031d60201b60201c565b80806001019150506101a3565b50505050505050505061167e565b8060029081610253919061120c565b5050565b6000600360009054906101000a900473ffffffffffffffffffffffffffffffffffffffff16905081600360006101000a81548173ffffffffffffffffffffffffffffffffffffffff021916908373ffffffffffffffffffffffffffffffffffffffff1602179055508173ffffffffffffffffffffffffffffffffffffffff168173ffffffffffffffffffffffffffffffffffffffff167f8be0079c531659141344cd1fd0a4f28419497f9722a3daafe3b4186f6b6457e060405160405180910390a35050565b600073ffffffffffffffffffffffffffffffffffffffff168473ffffffffffffffffffffffffffffffffffffffff160361038f5760006040517f57f447ce0000000000000000000000000000000000000000000000000000000081526004016103869190610fda565b60405180910390fd5b6000806103a285856103c260201b60201c565b915091506103ba6000878484876103f260201b60201c565b505050505050565b60608060405191506001825283602083015260408201905060018152826020820152604081016040529250929050565b610404858585856104bc60201b60201c565b600073ffffffffffffffffffffffffffffffffffffffff168473ffffffffffffffffffffffffffffffffffffffff16146104b557600061044861086a60201b60201c565b9050600184510361049e57600061046960008661087260201b90919060201c565b9050600061048160008661087260201b90919060201c565b905061049783898985858961088660201b60201c565b50506104b3565b6104b2818787878787610a3a60201b60201c565b5b505b5050505050565b805182511461050657815181516040517f5b0599910000000000000000000000000000000000000000000000000000000081526004016104fd92919061137f565b60405180910390fd5b600061051661086a60201b60201c565b905060005b8351811015610725576000610539828661087260201b90919060201c565b90506000610550838661087260201b90919060201c565b9050600073ffffffffffffffffffffffffffffffffffffffff168873ffffffffffffffffffffffffffffffffffffffff161461067d57600080600084815260200190815260200160002060008a73ffffffffffffffffffffffffffffffffffffffff1673ffffffffffffffffffffffffffffffffffffffff1681526020019081526020016000205490508181101561062557888183856040517f03dee4c500000000000000000000000000000000000000000000000000000000815260040161061c94939291906113a8565b60405180910390fd5b81810360008085815260200190815260200160002060008b73ffffffffffffffffffffffffffffffffffffffff1673ffffffffffffffffffffffffffffffffffffffff16815260200190815260200160002081905550505b600073ffffffffffffffffffffffffffffffffffffffff168773ffffffffffffffffffffffffffffffffffffffff1614610718578060008084815260200190815260200160002060008973ffffffffffffffffffffffffffffffffffffffff1673ffffffffffffffffffffffffffffffffffffffff1681526020019081526020016000206000828254610710919061133c565b925050819055505b505080600101905061051b565b5060018351036107e457600061074560008561087260201b90919060201c565b9050600061075d60008561087260201b90919060201c565b90508573ffffffffffffffffffffffffffffffffffffffff168773ffffffffffffffffffffffffffffffffffffffff168473ffffffffffffffffffffffffffffffffffffffff167fc3d58168c5ae7397731d063d5bbf3d657854427343f4c083240f7aacaa2d0f6285856040516107d592919061137f565b60405180910390a45050610863565b8373ffffffffffffffffffffffffffffffffffffffff168573ffffffffffffffffffffffffffffffffffffffff168273ffffffffffffffffffffffffffffffffffffffff167f4a39dc06d4c0dbc64b70af90fd698a233a518aa5d07e595d983b8c0526c8f7fb868660405161085a9291906114ab565b60405180910390a45b5050505050565b600033905090565b600060208202602084010151905092915050565b60008473ffffffffffffffffffffffffffffffffffffffff163b1115610a32578373ffffffffffffffffffffffffffffffffffffffff1663f23a6e6187878686866040518663ffffffff1660e01b81526004016108e7959493929190611537565b6020604051808303816000875af192505050801561092357506040513d601f19601f8201168201806040525081019061092091906115e9565b60015b6109a7573d8060008114610953576040519150601f19603f3d011682016040523d82523d6000602084013e610958565b606091505b50600081510361099f57846040517f57f447ce0000000000000000000000000000000000000000000000000000000081526004016109969190610fda565b60405180910390fd5b805181602001fd5b63f23a6e6160e01b7bffffffffffffffffffffffffffffffffffffffffffffffffffffffff1916817bffffffffffffffffffffffffffffffffffffffffffffffffffffffff191614610a3057846040517f57f447ce000000000000000000000000000000000000000000000000000000008152600401610a279190610fda565b60405180910390fd5b505b505050505050565b60008473ffffffffffffffffffffffffffffffffffffffff163b1115610be6578373ffffffffffffffffffffffffffffffffffffffff1663bc197c8187878686866040518663ffffffff1660e01b8152600401610a9b959493929190611616565b6020604051808303816000875af1925050508015610ad757506040513d601f19601f82011682018060405250810190610ad491906115e9565b60015b610b5b573d8060008114610b07576040519150601f19603f3d011682016040523d82523d6000602084013e610b0c565b606091505b506000815103610b5357846040517f57f447ce000000000000000000000000000000000000000000000000000000008152600401610b4a9190610fda565b60405180910390fd5b805181602001fd5b63bc197c8160e01b7bffffffffffffffffffffffffffffffffffffffffffffffffffffffff1916817bffffffffffffffffffffffffffffffffffffffffffffffffffffffff191614610be457846040517f57f447ce000000000000000000000000000000000000000000000000000000008152600401610bdb9190610fda565b60405180910390fd5b505b505050505050565b6000604051905090565b600080fd5b600080fd5b600080fd5b600080fd5b6000601f19601f8301169050919050565b7f4e487b7100000000000000000000000000000000000000000000000000000000600052604160045260246000fd5b610c5582610c0c565b810181811067ffffffffffffffff82111715610c7457610c73610c1d565b5b80604052505050565b6000610c87610bee565b9050610c938282610c4c565b919050565b600067ffffffffffffffff821115610cb357610cb2610c1d565b5b610cbc82610c0c565b9050602081019050919050565b60005b83811015610ce7578082015181840152602081019050610ccc565b60008484015250505050565b6000610d06610d0184610c98565b610c7d565b905082815260208101848484011115610d2257610d21610c07565b5b610d2d848285610cc9565b509392505050565b600082601f830112610d4a57610d49610c02565b5b8151610d5a848260208601610cf3565b91505092915050565b600073ffffffffffffffffffffffffffffffffffffffff82169050919050565b6000610d8e82610d63565b9050919050565b610d9e81610d83565b8114610da957600080fd5b50565b600081519050610dbb81610d95565b92915050565b6000819050919050565b610dd481610dc1565b8114610ddf57600080fd5b50565b600081519050610df181610dcb565b92915050565b600067ffffffffffffffff821115610e1257610e11610c1d565b5b602082029050602081019050919050565b600080fd5b6000610e3b610e3684610df7565b610c7d565b90508083825260208201905060208402830185811115610e5e57610e5d610e23565b5b835b81811015610ea557805167ffffffffffffffff811115610e8357610e82610c02565b5b808601610e908982610d35565b85526020850194505050602081019050610e60565b5050509392505050565b600082601f830112610ec457610ec3610c02565b5b8151610ed4848260208601610e28565b91505092915050565b600080600080600080600080610100898b031215610efe57610efd610bf8565b5b600089015167ffffffffffffffff811115610f1c57610f1b610bfd565b5b610f288b828c01610d35565b9850506020610f398b828c01610dac565b9750506040610f4a8b828c01610dac565b9650506060610f5b8b828c01610dac565b9550506080610f6c8b828c01610de2565b94505060a0610f7d8b828c01610de2565b93505060c0610f8e8b828c01610de2565b92505060e089015167ffffffffffffffff811115610faf57610fae610bfd565b5b610fbb8b828c01610eaf565b9150509295985092959890939650565b610fd481610d83565b82525050565b6000602082019050610fef6000830184610fcb565b92915050565b600081519050919050565b7f4e487b7100000000000000000000000000000000000000000000000000000000600052602260045260246000fd5b6000600282049050600182168061104757607f821691505b60208210810361105a57611059611000565b5b50919050565b60008190508160005260206000209050919050565b60006020601f8301049050919050565b600082821b905092915050565b6000600883026110c27fffffffffffffffffffffffffffffffffffffffffffffffffffffffffffffffff82611085565b6110cc8683611085565b95508019841693508086168417925050509392505050565b6000819050919050565b60006111096111046110ff84610dc1565b6110e4565b610dc1565b9050919050565b6000819050919050565b611123836110ee565b61113761112f82611110565b848454611092565b825550505050565b600090565b61114c61113f565b61115781848461111a565b505050565b5b8181101561117b57611170600082611144565b60018101905061115d565b5050565b601f8211156111c05761119181611060565b61119a84611075565b810160208510156111a9578190505b6111bd6111b585611075565b83018261115c565b50505b505050565b600082821c905092915050565b60006111e3600019846008026111c5565b1980831691505092915050565b60006111fc83836111d2565b9150826002028217905092915050565b61121582610ff5565b67ffffffffffffffff81111561122e5761122d610c1d565b5b611238825461102f565b61124382828561117f565b600060209050601f8311600181146112765760008415611264578287015190505b61126e85826111f0565b8655506112d6565b601f19841661128486611060565b60005b828110156112ac57848901518255600182019150602085019450602081019050611287565b868310156112c957848901516112c5601f8916826111d2565b8355505b6001600288020188555050505b505050505050565b7f4e487b7100000000000000000000000000000000000000000000000000000000600052603260045260246000fd5b7f4e487b7100000000000000000000000000000000000000000000000000000000600052601160045260246000fd5b600061134782610dc1565b915061135283610dc1565b925082820190508082111561136a5761136961130d565b5b92915050565b61137981610dc1565b82525050565b60006040820190506113946000830185611370565b6113a16020830184611370565b9392505050565b60006080820190506113bd6000830187610fcb565b6113ca6020830186611370565b6113d76040830185611370565b6113e46060830184611370565b95945050505050565b600081519050919050565b600082825260208201905092915050565b6000819050602082019050919050565b61142281610dc1565b82525050565b60006114348383611419565b60208301905092915050565b6000602082019050919050565b6000611458826113ed565b61146281856113f8565b935061146d83611409565b8060005b8381101561149e5781516114858882611428565b975061149083611440565b925050600181019050611471565b5085935050505092915050565b600060408201905081810360008301526114c5818561144d565b905081810360208301526114d9818461144d565b90509392505050565b600081519050919050565b600082825260208201905092915050565b6000611509826114e2565b61151381856114ed565b9350611523818560208601610cc9565b61152c81610c0c565b840191505092915050565b600060a08201905061154c6000830188610fcb565b6115596020830187610fcb565b6115666040830186611370565b6115736060830185611370565b818103608083015261158581846114fe565b90509695505050505050565b60007fffffffff0000000000000000000000000000000000000000000000000000000082169050919050565b6115c681611591565b81146115d157600080fd5b50565b6000815190506115e3816115bd565b92915050565b6000602082840312156115ff576115fe610bf8565b5b600061160d848285016115d4565b91505092915050565b600060a08201905061162b6000830188610fcb565b6116386020830187610fcb565b818103604083015261164a818661144d565b9050818103606083015261165e818561144d565b9050818103608083015261167281846114fe565b90509695505050505050565b613abe8061168d6000396000f3fe608060405234801561001057600080fd5b50600436106102735760003560e01c80638da5cb5b11610151578063be914d8f116100c3578063e985e9c511610087578063e985e9c5146107b3578063eae99684146107e3578063f09e2c9114610813578063f23a6e6114610843578063f242432a14610873578063f2fde38b1461088f57610273565b8063be914d8f14610723578063d320353b1461073f578063ddca3f431461075b578063dfbd48bb14610779578063e89d5a891461079557610273565b8063a761d1b611610115578063a761d1b614610661578063a886603d1461067f578063a89ae4ba1461069b578063aedf5761146106b9578063b162a71a146106d5578063b2016bd41461070557610273565b80638da5cb5b146105bd578063909d7e09146105db5780639cd01605146105f7578063a22cb46514610615578063a587659f1461063157610273565b8063409e2205116101ea5780635b51950e116101ae5780635b51950e146104fd5780635b5f456314610519578063715018a6146105495780637655e804146105535780637a2bcdc91461056f5780638af6375f1461059f57610273565b8063409e2205146104355780634138c4f5146104655780634838e687146104815780634e1273f41461049d57806351dd442c146104cd57610273565b80631133481a1161023c5780631133481a14610344578063151c48c214610374578063151ce6eb146103a45780632d10fa28146103d45780632eb2c2d6146103fb5780633fad9ae01461041757610273565b8062fdd58e1461027857806301ffc9a7146102a85780630b97bc86146102d85780630e89341c146102f65780630fb0d9eb14610326575b600080fd5b610292600480360381019061028d9190612976565b6108ab565b60405161029f91906129c5565b60405180910390f35b6102c260048036038101906102bd9190612a38565b610905565b6040516102cf9190612a80565b60405180910390f35b6102e06109e7565b6040516102ed91906129c5565b60405180910390f35b610310600480360381019061030b9190612a9b565b6109ed565b60405161031d9190612b58565b60405180910390f35b61032e610a81565b60405161033b91906129c5565b60405180910390f35b61035e60048036038101906103599190612976565b610a8b565b60405161036b91906129c5565b60405180910390f35b61038e60048036038101906103899190612b7a565b610ae6565b60405161039b91906129c5565b60405180910390f35b6103be60048036038101906103b99190612976565b610afe565b6040516103cb91906129c5565b60405180910390f35b6103dc610b23565b6040516103f29a99989796959493929190612cc2565b60405180910390f35b61041560048036038101906104109190612f69565b610d3c565b005b61041f610de4565b60405161042c9190612b58565b60405180910390f35b61044f600480360381019061044a9190612a9b565b610e72565b60405161045c9190612b58565b60405180910390f35b61047f600480360381019061047a9190612976565b610f1e565b005b61049b60048036038101906104969190612a9b565b610f78565b005b6104b760048036038101906104b291906130fb565b61105a565b6040516104c49190613231565b60405180910390f35b6104e760048036038101906104e29190612976565b611163565b6040516104f491906129c5565b60405180910390f35b61051760048036038101906105129190612976565b6111be565b005b610533600480360381019061052e9190612a9b565b611206565b60405161054091906129c5565b60405180910390f35b610551611223565b005b61056d60048036038101906105689190613253565b611237565b005b61058960048036038101906105849190612a9b565b6112a2565b60405161059691906129c5565b60405180910390f35b6105a76112ba565b6040516105b491906129c5565b60405180910390f35b6105c56112c0565b6040516105d29190613293565b60405180910390f35b6105f560048036038101906105f091906132ae565b6112ea565b005b6105ff611344565b60405161060c9190613293565b60405180910390f35b61062f600480360381019061062a919061332d565b61136a565b005b61064b60048036038101906106469190612976565b611380565b60405161065891906129c5565b60405180910390f35b6106696113a5565b60405161067691906129c5565b60405180910390f35b61069960048036038101906106949190612a9b565b6113ab565b005b6106a3611635565b6040516106b09190613293565b60405180910390f35b6106d360048036038101906106ce9190612a9b565b61165b565b005b6106ef60048036038101906106ea9190612b7a565b611795565b6040516106fc91906129c5565b60405180910390f35b61070d6117ad565b60405161071a9190613293565b60405180910390f35b61073d60048036038101906107389190613253565b6117d3565b005b61075960048036038101906107549190612a9b565b6117ef565b005b6107636117f9565b60405161077091906129c5565b60405180910390f35b610793600480360381019061078e91906132ae565b6117ff565b005b61079d611859565b6040516107aa9190613293565b60405180910390f35b6107cd60048036038101906107c8919061336d565b61187f565b6040516107da9190612a80565b60405180910390f35b6107fd60048036038101906107f89190612b7a565b611913565b60405161080a91906129c5565b60405180910390f35b61082d60048036038101906108289190612b7a565b61195c565b60405161083a91906129c5565b60405180910390f35b61085d60048036038101906108589190613408565b6119a5565b60405161086a91906134b1565b60405180910390f35b61088d600480360381019061088891906134cc565b6119bb565b005b6108a960048036038101906108a49190612b7a565b611a63565b005b600080600083815260200190815260200160002060008473ffffffffffffffffffffffffffffffffffffffff1673ffffffffffffffffffffffffffffffffffffffff16815260200190815260200160002054905092915050565b60007fd9b67a26000000000000000000000000000000000000000000000000000000007bffffffffffffffffffffffffffffffffffffffffffffffffffffffff1916827bffffffffffffffffffffffffffffffffffffffffffffffffffffffff191614806109d057507f0e89341c000000000000000000000000000000000000000000000000000000007bffffffffffffffffffffffffffffffffffffffffffffffffffffffff1916827bffffffffffffffffffffffffffffffffffffffffffffffffffffffff1916145b806109e057506109df82611ae9565b5b9050919050565b600a5481565b6060600280546109fc90613592565b80601f0160208091040260200160405190810160405280929190818152602001828054610a2890613592565b8015610a755780601f10610a4a57610100808354040283529160200191610a75565b820191906000526020600020905b815481529060010190602001808311610a5857829003601f168201915b50505050509050919050565b6000600854905090565b6000601160008473ffffffffffffffffffffffffffffffffffffffff1673ffffffffffffffffffffffffffffffffffffffff168152602001908152602001600020600083815260200190815260200160002054905092915050565b60126020528060005260406000206000915090505481565b6011602052816000526040600020602052806000526040600020600091509150505481565b60606000806000806000806000606060006004600560009054906101000a900473ffffffffffffffffffffffffffffffffffffffff16600660009054906101000a900473ffffffffffffffffffffffffffffffffffffffff16600760009054906101000a900473ffffffffffffffffffffffffffffffffffffffff16600854600954600a54600b54600c600d60149054906101000a900460ff16898054610bc990613592565b80601f0160208091040260200160405190810160405280929190818152602001828054610bf590613592565b8015610c425780601f10610c1757610100808354040283529160200191610c42565b820191906000526020600020905b815481529060010190602001808311610c2557829003601f168201915b5050505050995081805480602002602001604051908101604052809291908181526020016000905b82821015610d16578382906000526020600020018054610c8990613592565b80601f0160208091040260200160405190810160405280929190818152602001828054610cb590613592565b8015610d025780601f10610cd757610100808354040283529160200191610d02565b820191906000526020600020905b815481529060010190602001808311610ce557829003601f168201915b505050505081526020019060010190610c6a565b505050509150995099509950995099509950995099509950995090919293949596979899565b6000610d46611b53565b90508073ffffffffffffffffffffffffffffffffffffffff168673ffffffffffffffffffffffffffffffffffffffff1614158015610d8b5750610d89868261187f565b155b15610dcf5780866040517fe237d922000000000000000000000000000000000000000000000000000000008152600401610dc69291906135c3565b60405180910390fd5b610ddc8686868686611b5b565b505050505050565b60048054610df190613592565b80601f0160208091040260200160405190810160405280929190818152602001828054610e1d90613592565b8015610e6a5780601f10610e3f57610100808354040283529160200191610e6a565b820191906000526020600020905b815481529060010190602001808311610e4d57829003601f168201915b505050505081565b600c8181548110610e8257600080fd5b906000526020600020016000915090508054610e9d90613592565b80601f0160208091040260200160405190810160405280929190818152602001828054610ec990613592565b8015610f165780601f10610eeb57610100808354040283529160200191610f16565b820191906000526020600020905b815481529060010190602001808311610ef957829003601f168201915b505050505081565b80601260008473ffffffffffffffffffffffffffffffffffffffff1673ffffffffffffffffffffffffffffffffffffffff1681526020019081526020016000206000828254610f6d919061361b565b925050819055505050565b600760009054906101000a900473ffffffffffffffffffffffffffffffffffffffff1673ffffffffffffffffffffffffffffffffffffffff1663a9059cbb33836040518363ffffffff1660e01b8152600401610fd592919061364f565b6020604051808303816000875af1158015610ff4573d6000803e3d6000fd5b505050506040513d601f19601f82011682018060405250810190611018919061368d565b611057576040517f08c379a000000000000000000000000000000000000000000000000000000000815260040161104e90613706565b60405180910390fd5b50565b606081518351146110a657815183516040517f5b05999100000000000000000000000000000000000000000000000000000000815260040161109d929190613726565b60405180910390fd5b6000835167ffffffffffffffff8111156110c3576110c2612d71565b5b6040519080825280602002602001820160405280156110f15781602001602082028036833780820191505090505b50905060005b84518110156111585761112e6111168287611c5390919063ffffffff16565b6111298387611c6790919063ffffffff16565b6108ab565b8282815181106111415761114061374f565b5b6020026020010181815250508060010190506110f7565b508091505092915050565b6000600e60008473ffffffffffffffffffffffffffffffffffffffff1673ffffffffffffffffffffffffffffffffffffffff168152602001908152602001600020600083815260200190815260200160002054905092915050565b80601060008473ffffffffffffffffffffffffffffffffffffffff1673ffffffffffffffffffffffffffffffffffffffff168152602001908152602001600020819055505050565b6000600f6000838152602001908152602001600020549050919050565b61122b611c7b565b6112356000611d02565b565b80601160003373ffffffffffffffffffffffffffffffffffffffff1673ffffffffffffffffffffffffffffffffffffffff16815260200190815260200160002060008481526020019081526020016000206000828254611297919061361b565b925050819055505050565b600f6020528060005260406000206000915090505481565b60085481565b6000600360009054906101000a900473ffffffffffffffffffffffffffffffffffffffff16905090565b80601160008573ffffffffffffffffffffffffffffffffffffffff1673ffffffffffffffffffffffffffffffffffffffff168152602001908152602001600020600084815260200190815260200160002081905550505050565b600660009054906101000a900473ffffffffffffffffffffffffffffffffffffffff1681565b61137c611375611b53565b8383611dc8565b5050565b600e602052816000526040600020602052806000526040600020600091509150505481565b600b5481565b600d60149054906101000a900460ff16156113fb576040517f08c379a00000000000000000000000000000000000000000000000000000000081526004016113f2906137ca565b60405180910390fd5b600a81101561143f576040517f08c379a00000000000000000000000000000000000000000000000000000000081526004016114369061385c565b60405180910390fd5b8060088190555060005b600c805490508110156115335781600f6000600184611468919061361b565b81526020019081526020016000206000828254611485919061361b565b9250508190555081600e60003373ffffffffffffffffffffffffffffffffffffffff1673ffffffffffffffffffffffffffffffffffffffff16815260200190815260200160002060006001846114db919061361b565b815260200190815260200160002060008282546114f8919061361b565b9250508190555061152630600183611510919061361b565b8460405180602001604052806000815250611f38565b8080600101915050611449565b50600760009054906101000a900473ffffffffffffffffffffffffffffffffffffffff1673ffffffffffffffffffffffffffffffffffffffff166323b872dd33306008546040518463ffffffff1660e01b81526004016115959392919061387c565b6020604051808303816000875af11580156115b4573d6000803e3d6000fd5b505050506040513d601f19601f820116820180604052508101906115d8919061368d565b611617576040517f08c379a000000000000000000000000000000000000000000000000000000000815260040161160e90613706565b60405180910390fd5b6001600d60146101000a81548160ff02191690831515021790555050565b600560009054906101000a900473ffffffffffffffffffffffffffffffffffffffff1681565b600760009054906101000a900473ffffffffffffffffffffffffffffffffffffffff1673ffffffffffffffffffffffffffffffffffffffff166323b872dd3330846040518463ffffffff1660e01b81526004016116ba9392919061387c565b6020604051808303816000875af11580156116d9573d6000803e3d6000fd5b505050506040513d601f19601f820116820180604052508101906116fd919061368d565b61173c576040517f08c379a000000000000000000000000000000000000000000000000000000000815260040161173390613706565b60405180910390fd5b80601060003373ffffffffffffffffffffffffffffffffffffffff1673ffffffffffffffffffffffffffffffffffffffff168152602001908152602001600020600082825461178b919061361b565b9250508190555050565b60106020528060005260406000206000915090505481565b600760009054906101000a900473ffffffffffffffffffffffffffffffffffffffff1681565b80600f6000848152602001908152602001600020819055505050565b8060088190555050565b60095481565b80600e60008573ffffffffffffffffffffffffffffffffffffffff1673ffffffffffffffffffffffffffffffffffffffff168152602001908152602001600020600084815260200190815260200160002081905550505050565b600d60009054906101000a900473ffffffffffffffffffffffffffffffffffffffff1681565b6000600160008473ffffffffffffffffffffffffffffffffffffffff1673ffffffffffffffffffffffffffffffffffffffff16815260200190815260200160002060008373ffffffffffffffffffffffffffffffffffffffff1673ffffffffffffffffffffffffffffffffffffffff16815260200190815260200160002060009054906101000a900460ff16905092915050565b6000601060008373ffffffffffffffffffffffffffffffffffffffff1673ffffffffffffffffffffffffffffffffffffffff168152602001908152602001600020549050919050565b6000601260008373ffffffffffffffffffffffffffffffffffffffff1673ffffffffffffffffffffffffffffffffffffffff168152602001908152602001600020549050919050565b600063f23a6e6160e01b90509695505050505050565b60006119c5611b53565b90508073ffffffffffffffffffffffffffffffffffffffff168673ffffffffffffffffffffffffffffffffffffffff1614158015611a0a5750611a08868261187f565b155b15611a4e5780866040517fe237d922000000000000000000000000000000000000000000000000000000008152600401611a459291906135c3565b60405180910390fd5b611a5b8686868686611fd1565b505050505050565b611a6b611c7b565b600073ffffffffffffffffffffffffffffffffffffffff168173ffffffffffffffffffffffffffffffffffffffff1603611add5760006040517f1e4fbdf7000000000000000000000000000000000000000000000000000000008152600401611ad49190613293565b60405180910390fd5b611ae681611d02565b50565b60007f01ffc9a7000000000000000000000000000000000000000000000000000000007bffffffffffffffffffffffffffffffffffffffffffffffffffffffff1916827bffffffffffffffffffffffffffffffffffffffffffffffffffffffff1916149050919050565b600033905090565b600073ffffffffffffffffffffffffffffffffffffffff168473ffffffffffffffffffffffffffffffffffffffff1603611bcd5760006040517f57f447ce000000000000000000000000000000000000000000000000000000008152600401611bc49190613293565b60405180910390fd5b600073ffffffffffffffffffffffffffffffffffffffff168573ffffffffffffffffffffffffffffffffffffffff1603611c3f5760006040517f01a83514000000000000000000000000000000000000000000000000000000008152600401611c369190613293565b60405180910390fd5b611c4c85858585856120dc565b5050505050565b600060208202602084010151905092915050565b600060208202602084010151905092915050565b611c83611b53565b73ffffffffffffffffffffffffffffffffffffffff16611ca16112c0565b73ffffffffffffffffffffffffffffffffffffffff1614611d0057611cc4611b53565b6040517f118cdaa7000000000000000000000000000000000000000000000000000000008152600401611cf79190613293565b60405180910390fd5b565b6000600360009054906101000a900473ffffffffffffffffffffffffffffffffffffffff16905081600360006101000a81548173ffffffffffffffffffffffffffffffffffffffff021916908373ffffffffffffffffffffffffffffffffffffffff1602179055508173ffffffffffffffffffffffffffffffffffffffff168173ffffffffffffffffffffffffffffffffffffffff167f8be0079c531659141344cd1fd0a4f28419497f9722a3daafe3b4186f6b6457e060405160405180910390a35050565b600073ffffffffffffffffffffffffffffffffffffffff168273ffffffffffffffffffffffffffffffffffffffff1603611e3a5760006040517fced3e100000000000000000000000000000000000000000000000000000000008152600401611e319190613293565b60405180910390fd5b80600160008573ffffffffffffffffffffffffffffffffffffffff1673ffffffffffffffffffffffffffffffffffffffff16815260200190815260200160002060008473ffffffffffffffffffffffffffffffffffffffff1673ffffffffffffffffffffffffffffffffffffffff16815260200190815260200160002060006101000a81548160ff0219169083151502179055508173ffffffffffffffffffffffffffffffffffffffff168373ffffffffffffffffffffffffffffffffffffffff167f17307eab39ab6107e8899845ad3d59bd9653f200f220920489ca2b5937696c3183604051611f2b9190612a80565b60405180910390a3505050565b600073ffffffffffffffffffffffffffffffffffffffff168473ffffffffffffffffffffffffffffffffffffffff1603611faa5760006040517f57f447ce000000000000000000000000000000000000000000000000000000008152600401611fa19190613293565b60405180910390fd5b600080611fb7858561218e565b91509150611fc96000878484876120dc565b505050505050565b600073ffffffffffffffffffffffffffffffffffffffff168473ffffffffffffffffffffffffffffffffffffffff16036120435760006040517f57f447ce00000000000000000000000000000000000000000000000000000000815260040161203a9190613293565b60405180910390fd5b600073ffffffffffffffffffffffffffffffffffffffff168573ffffffffffffffffffffffffffffffffffffffff16036120b55760006040517f01a835140000000000000000000000000000000000000000000000000000000081526004016120ac9190613293565b60405180910390fd5b6000806120c2858561218e565b915091506120d387878484876120dc565b50505050505050565b6120e8858585856121be565b600073ffffffffffffffffffffffffffffffffffffffff168473ffffffffffffffffffffffffffffffffffffffff1614612187576000612126611b53565b90506001845103612176576000612147600086611c6790919063ffffffff16565b9050600061215f600086611c6790919063ffffffff16565b905061216f838989858589612566565b5050612185565b61218481878787878761271a565b5b505b5050505050565b60608060405191506001825283602083015260408201905060018152826020820152604081016040529250929050565b805182511461220857815181516040517f5b0599910000000000000000000000000000000000000000000000000000000081526004016121ff929190613726565b60405180910390fd5b6000612212611b53565b905060005b83518110156124215760006122358286611c6790919063ffffffff16565b9050600061224c8386611c6790919063ffffffff16565b9050600073ffffffffffffffffffffffffffffffffffffffff168873ffffffffffffffffffffffffffffffffffffffff161461237957600080600084815260200190815260200160002060008a73ffffffffffffffffffffffffffffffffffffffff1673ffffffffffffffffffffffffffffffffffffffff1681526020019081526020016000205490508181101561232157888183856040517f03dee4c500000000000000000000000000000000000000000000000000000000815260040161231894939291906138b3565b60405180910390fd5b81810360008085815260200190815260200160002060008b73ffffffffffffffffffffffffffffffffffffffff1673ffffffffffffffffffffffffffffffffffffffff16815260200190815260200160002081905550505b600073ffffffffffffffffffffffffffffffffffffffff168773ffffffffffffffffffffffffffffffffffffffff1614612414578060008084815260200190815260200160002060008973ffffffffffffffffffffffffffffffffffffffff1673ffffffffffffffffffffffffffffffffffffffff168152602001908152602001600020600082825461240c919061361b565b925050819055505b5050806001019050612217565b5060018351036124e0576000612441600085611c6790919063ffffffff16565b90506000612459600085611c6790919063ffffffff16565b90508573ffffffffffffffffffffffffffffffffffffffff168773ffffffffffffffffffffffffffffffffffffffff168473ffffffffffffffffffffffffffffffffffffffff167fc3d58168c5ae7397731d063d5bbf3d657854427343f4c083240f7aacaa2d0f6285856040516124d1929190613726565b60405180910390a4505061255f565b8373ffffffffffffffffffffffffffffffffffffffff168573ffffffffffffffffffffffffffffffffffffffff168273ffffffffffffffffffffffffffffffffffffffff167f4a39dc06d4c0dbc64b70af90fd698a233a518aa5d07e595d983b8c0526c8f7fb86866040516125569291906138f8565b60405180910390a45b5050505050565b60008473ffffffffffffffffffffffffffffffffffffffff163b1115612712578373ffffffffffffffffffffffffffffffffffffffff1663f23a6e6187878686866040518663ffffffff1660e01b81526004016125c7959493929190613984565b6020604051808303816000875af192505050801561260357506040513d601f19601f8201168201806040525081019061260091906139f3565b60015b612687573d8060008114612633576040519150601f19603f3d011682016040523d82523d6000602084013e612638565b606091505b50600081510361267f57846040517f57f447ce0000000000000000000000000000000000000000000000000000000081526004016126769190613293565b60405180910390fd5b805181602001fd5b63f23a6e6160e01b7bffffffffffffffffffffffffffffffffffffffffffffffffffffffff1916817bffffffffffffffffffffffffffffffffffffffffffffffffffffffff19161461271057846040517f57f447ce0000000000000000000000000000000000000000000000000000000081526004016127079190613293565b60405180910390fd5b505b505050505050565b60008473ffffffffffffffffffffffffffffffffffffffff163b11156128c6578373ffffffffffffffffffffffffffffffffffffffff1663bc197c8187878686866040518663ffffffff1660e01b815260040161277b959493929190613a20565b6020604051808303816000875af19250505080156127b757506040513d601f19601f820116820180604052508101906127b491906139f3565b60015b61283b573d80600081146127e7576040519150601f19603f3d011682016040523d82523d6000602084013e6127ec565b606091505b50600081510361283357846040517f57f447ce00000000000000000000000000000000000000000000000000000000815260040161282a9190613293565b60405180910390fd5b805181602001fd5b63bc197c8160e01b7bffffffffffffffffffffffffffffffffffffffffffffffffffffffff1916817bffffffffffffffffffffffffffffffffffffffffffffffffffffffff1916146128c457846040517f57f447ce0000000000000000000000000000000000000000000000000000000081526004016128bb9190613293565b60405180910390fd5b505b505050505050565b6000604051905090565b600080fd5b600080fd5b600073ffffffffffffffffffffffffffffffffffffffff82169050919050565b600061290d826128e2565b9050919050565b61291d81612902565b811461292857600080fd5b50565b60008135905061293a81612914565b92915050565b6000819050919050565b61295381612940565b811461295e57600080fd5b50565b6000813590506129708161294a565b92915050565b6000806040838503121561298d5761298c6128d8565b5b600061299b8582860161292b565b92505060206129ac85828601612961565b9150509250929050565b6129bf81612940565b82525050565b60006020820190506129da60008301846129b6565b92915050565b60007fffffffff0000000000000000000000000000000000000000000000000000000082169050919050565b612a15816129e0565b8114612a2057600080fd5b50565b600081359050612a3281612a0c565b92915050565b600060208284031215612a4e57612a4d6128d8565b5b6000612a5c84828501612a23565b91505092915050565b60008115159050919050565b612a7a81612a65565b82525050565b6000602082019050612a956000830184612a71565b92915050565b600060208284031215612ab157612ab06128d8565b5b6000612abf84828501612961565b91505092915050565b600081519050919050565b600082825260208201905092915050565b60005b83811015612b02578082015181840152602081019050612ae7565b60008484015250505050565b6000601f19601f8301169050919050565b6000612b2a82612ac8565b612b348185612ad3565b9350612b44818560208601612ae4565b612b4d81612b0e565b840191505092915050565b60006020820190508181036000830152612b728184612b1f565b905092915050565b600060208284031215612b9057612b8f6128d8565b5b6000612b9e8482850161292b565b91505092915050565b612bb081612902565b82525050565b600081519050919050565b600082825260208201905092915050565b6000819050602082019050919050565b600082825260208201905092915050565b6000612bfe82612ac8565b612c088185612be2565b9350612c18818560208601612ae4565b612c2181612b0e565b840191505092915050565b6000612c388383612bf3565b905092915050565b6000602082019050919050565b6000612c5882612bb6565b612c628185612bc1565b935083602082028501612c7485612bd2565b8060005b85811015612cb05784840389528151612c918582612c2c565b9450612c9c83612c40565b925060208a01995050600181019050612c78565b50829750879550505050505092915050565b6000610140820190508181036000830152612cdd818d612b1f565b9050612cec602083018c612ba7565b612cf9604083018b612ba7565b612d06606083018a612ba7565b612d1360808301896129b6565b612d2060a08301886129b6565b612d2d60c08301876129b6565b612d3a60e08301866129b6565b818103610100830152612d4d8185612c4d565b9050612d5d610120830184612a71565b9b9a5050505050505050505050565b600080fd5b7f4e487b7100000000000000000000000000000000000000000000000000000000600052604160045260246000fd5b612da982612b0e565b810181811067ffffffffffffffff82111715612dc857612dc7612d71565b5b80604052505050565b6000612ddb6128ce565b9050612de78282612da0565b919050565b600067ffffffffffffffff821115612e0757612e06612d71565b5b602082029050602081019050919050565b600080fd5b6000612e30612e2b84612dec565b612dd1565b90508083825260208201905060208402830185811115612e5357612e52612e18565b5b835b81811015612e7c5780612e688882612961565b845260208401935050602081019050612e55565b5050509392505050565b600082601f830112612e9b57612e9a612d6c565b5b8135612eab848260208601612e1d565b91505092915050565b600080fd5b600067ffffffffffffffff821115612ed457612ed3612d71565b5b612edd82612b0e565b9050602081019050919050565b82818337600083830152505050565b6000612f0c612f0784612eb9565b612dd1565b905082815260208101848484011115612f2857612f27612eb4565b5b612f33848285612eea565b509392505050565b600082601f830112612f5057612f4f612d6c565b5b8135612f60848260208601612ef9565b91505092915050565b600080600080600060a08688031215612f8557612f846128d8565b5b6000612f938882890161292b565b9550506020612fa48882890161292b565b945050604086013567ffffffffffffffff811115612fc557612fc46128dd565b5b612fd188828901612e86565b935050606086013567ffffffffffffffff811115612ff257612ff16128dd565b5b612ffe88828901612e86565b925050608086013567ffffffffffffffff81111561301f5761301e6128dd565b5b61302b88828901612f3b565b9150509295509295909350565b600067ffffffffffffffff82111561305357613052612d71565b5b602082029050602081019050919050565b600061307761307284613038565b612dd1565b9050808382526020820190506020840283018581111561309a57613099612e18565b5b835b818110156130c357806130af888261292b565b84526020840193505060208101905061309c565b5050509392505050565b600082601f8301126130e2576130e1612d6c565b5b81356130f2848260208601613064565b91505092915050565b60008060408385031215613112576131116128d8565b5b600083013567ffffffffffffffff8111156131305761312f6128dd565b5b61313c858286016130cd565b925050602083013567ffffffffffffffff81111561315d5761315c6128dd565b5b61316985828601612e86565b9150509250929050565b600081519050919050565b600082825260208201905092915050565b6000819050602082019050919050565b6131a881612940565b82525050565b60006131ba838361319f565b60208301905092915050565b6000602082019050919050565b60006131de82613173565b6131e8818561317e565b93506131f38361318f565b8060005b8381101561322457815161320b88826131ae565b9750613216836131c6565b9250506001810190506131f7565b5085935050505092915050565b6000602082019050818103600083015261324b81846131d3565b905092915050565b6000806040838503121561326a576132696128d8565b5b600061327885828601612961565b925050602061328985828601612961565b9150509250929050565b60006020820190506132a86000830184612ba7565b92915050565b6000806000606084860312156132c7576132c66128d8565b5b60006132d58682870161292b565b93505060206132e686828701612961565b92505060406132f786828701612961565b9150509250925092565b61330a81612a65565b811461331557600080fd5b50565b60008135905061332781613301565b92915050565b60008060408385031215613344576133436128d8565b5b60006133528582860161292b565b925050602061336385828601613318565b9150509250929050565b60008060408385031215613384576133836128d8565b5b60006133928582860161292b565b92505060206133a38582860161292b565b9150509250929050565b600080fd5b60008083601f8401126133c8576133c7612d6c565b5b8235905067ffffffffffffffff8111156133e5576133e46133ad565b5b60208301915083600182028301111561340157613400612e18565b5b9250929050565b60008060008060008060a08789031215613425576134246128d8565b5b600061343389828a0161292b565b965050602061344489828a0161292b565b955050604061345589828a01612961565b945050606061346689828a01612961565b935050608087013567ffffffffffffffff811115613487576134866128dd565b5b61349389828a016133b2565b92509250509295509295509295565b6134ab816129e0565b82525050565b60006020820190506134c660008301846134a2565b92915050565b600080600080600060a086880312156134e8576134e76128d8565b5b60006134f68882890161292b565b95505060206135078882890161292b565b945050604061351888828901612961565b935050606061352988828901612961565b925050608086013567ffffffffffffffff81111561354a576135496128dd565b5b61355688828901612f3b565b9150509295509295909350565b7f4e487b7100000000000000000000000000000000000000000000000000000000600052602260045260246000fd5b600060028204905060018216806135aa57607f821691505b6020821081036135bd576135bc613563565b5b50919050565b60006040820190506135d86000830185612ba7565b6135e56020830184612ba7565b9392505050565b7f4e487b7100000000000000000000000000000000000000000000000000000000600052601160045260246000fd5b600061362682612940565b915061363183612940565b9250828201905080821115613649576136486135ec565b5b92915050565b60006040820190506136646000830185612ba7565b61367160208301846129b6565b9392505050565b60008151905061368781613301565b92915050565b6000602082840312156136a3576136a26128d8565b5b60006136b184828501613678565b91505092915050565b7f436f6c6c61746572616c20746f6b656e207472616e73666572206661696c6564600082015250565b60006136f0602083612ad3565b91506136fb826136ba565b602082019050919050565b6000602082019050818103600083015261371f816136e3565b9050919050565b600060408201905061373b60008301856129b6565b61374860208301846129b6565b9392505050565b7f4e487b7100000000000000000000000000000000000000000000000000000000600052603260045260246000fd5b7f496e697469616c206c697175696469747920616c72656164792061646465642e600082015250565b60006137b4602083612ad3565b91506137bf8261377e565b602082019050919050565b600060208201905081810360008301526137e3816137a7565b9050919050565b7f416d6f756e7420666f722065616368206f7074696f6e206d757374206265206760008201527f726561746572207468616e207a65726f2e000000000000000000000000000000602082015250565b6000613846603183612ad3565b9150613851826137ea565b604082019050919050565b6000602082019050818103600083015261387581613839565b9050919050565b60006060820190506138916000830186612ba7565b61389e6020830185612ba7565b6138ab60408301846129b6565b949350505050565b60006080820190506138c86000830187612ba7565b6138d560208301866129b6565b6138e260408301856129b6565b6138ef60608301846129b6565b95945050505050565b6000604082019050818103600083015261391281856131d3565b9050818103602083015261392681846131d3565b90509392505050565b600081519050919050565b600082825260208201905092915050565b60006139568261392f565b613960818561393a565b9350613970818560208601612ae4565b61397981612b0e565b840191505092915050565b600060a0820190506139996000830188612ba7565b6139a66020830187612ba7565b6139b360408301866129b6565b6139c060608301856129b6565b81810360808301526139d2818461394b565b90509695505050505050565b6000815190506139ed81612a0c565b92915050565b600060208284031215613a0957613a086128d8565b5b6000613a17848285016139de565b91505092915050565b600060a082019050613a356000830188612ba7565b613a426020830187612ba7565b8181036040830152613a5481866131d3565b90508181036060830152613a6881856131d3565b90508181036080830152613a7c818461394b565b9050969550505050505056fea2646970667358221220c3ad2ea04d0b8d5a2dcdd17113250b366e47ac92785257f5916818e3b564161e64736f6c634300081b003368747470733a2f2f6578616d706c652e636f6d2f6d657461646174612f7b69647d2e6a736f6ea26469706673582212206f960aceff4b0129e2eb74bacf67198164ac6493393e9e18c37d7e65e6aa476864736f6c634300081b0033",
	"linkReferences": {},
	"deployedLinkReferences": {}
}